:0400000060EF00F0BD
:0E0008004882FACF62F0FBCF63F006ED14F0F1
:100018004880D8CF26F0E8CF27F0E0CF28F0FACFF5
:1000280029F0FBCF2AF0E9CF2BF0EACF2CF0E1CF73
:100038002DF0E2CF2EF0D9CF2FF0DACF30F0F3CF7A
:1000480031F0F4CF32F0F6CF33F0F7CF34F0F8CF09
:1000580035F0F5CF36F0A1A20BD0010E0926000E1F
:100068000A220B220C22630EB36EC00EB26EA1924E
:1000780036C0F5FF35C0F8FF34C0F7FF33C0F6FFD0
:1000880032C0F4FF31C0F3FF30C0DAFF2FC0D9FF10
:100098002EC0E2FF2DC0E1FF2CC0EAFF2BC0E9FF14
:1000A8002AC0FBFF29C0FAFF28C0E0FF27C0E8FFED
:1000B80026C0D8FF48901000D9EF16F0040E0101B1
:1000C8000C6F010E01010D6F71EF04F0250E010197
:1000D8002019D8B407D000C1D9FF01C1DAFF20C167
:1000E800DFFFF8D3000E01010F6F000E0E6F02C183
:1000F800F6FF03C1F7FF0800F5502E0AD8A434D044
:1001080001010F8D0101024B032B000E01011B6F32
:10011800000E1A6F1ED01AC13DF01BC13EF0000E32
:10012800406E0A0E3F6EE3EC17F002C1F6FF03C102
:10013800F7FF0800F5503D26000E3E22D00E3D2464
:1001480001011A6FFF0E3E2001011B6F0101024BD6
:10015800032B02C1F6FF03C1F7FF0800F550F6ECC8
:1001680017F0D8A00CD0D7D7000E01011B6F000ED6
:100178001A6F01010F8903D001010F8513D002C145
:10018800F6FF03C1F7FF0101024B032B0800F5CF6F
:1001980020F101012051000AD8B4AED3660AD8B4C0
:1001A800EBD79BD3070E01010F15D8B43ED301013D
:1001B8000FA905D0000E01011B6F060E1A6F0CC1A6
:1001C800D9FF0DC1DAFFDECF1CF1DECF1DF1DECF86
:1001D8001EF1DECF1FF1040E01010C27000E0D23C6
:1001E80001011FAF15D01CC13DF01DC13EF01EC15D
:1001F8003FF01FC140F065EC17F03DC01CF13EC058
:100208001DF13FC01EF140C01FF1030E01010E1386
:10021800000E0101156F000E146F01011C51010140
:100228001D1101011E1101011F11D8B489D001014E
:100238001E351F35820F0101146F0101156BFF0E6A
:10024800152301011407D8A0150714C13DF015C1E5
:100258003EF0000E406E030E3F6EE3EC17F03DC01B
:1002680014F13EC015F114C170F015C171F0000E03
:100278000001736F0A0E726FDCEC14F070C014F199
:1002880071C015F1010115AF04D001011407D8A000
:1002980015070101145100082EEC09F097C016F15A
:1002A80098C017F199C018F19AC019F116C17EF0DB
:1002B80017C17FF018C180F019C181F01CC182F00C
:1002C8001DC183F01EC184F01FC185F0DBEC06F070
:1002D8007EC016F17FC017F180C018F181C019F1F6
:1002E80016C13DF017C13EF018C13FF019C140F0EA
:1002F800000E416E000E426E800E436E3F0E446E3D
:10030800C3EC10F0D8B005D001011407D8A0150728
:1003180017D016C13DF017C13EF018C13FF019C102
:1003280040F0000E416E000E426E200E436E410EEC
:10033800446EC3EC10F0D8A003D00101144B152B68
:1003480001011BBF08D001011B5123E10D0E010162
:100358001A5DD8B01ED01CC1A4F01DC1A5F01EC1E5
:10036800A6F01FC1A7F001011A5119EC0DF097C0B2
:10037800A8F098C0A9F099C0AAF09AC0ABF087EC91
:1003880004F0A4C01CF1A5C01DF1A6C01EF1A7C0B1
:100398001FF1010115BF08D0010115512EE10A0E08
:1003A8000101145DD8B029D001011C5101011D11B2
:1003B80001011E1101011F11D8B46BD01CC1A0F09E
:1003C8001DC1A1F01EC1A2F01FC1A3F0A3EC12F041
:1003D8000001A0510001A1110001A2110001A31107
:1003E800D8A457D0010115BF54D00101155105E11A
:1003F800020E0101145DD8A04CD016C13DF017C102
:100408003EF018C13FF019C140F05F0E416E700E0A
:10041800426E890E436E400E446EC3EC10F0D8B0A5
:1004280003D00101F70E02D00101F80E1427FF0EC8
:100438001523010114512EEC09F097C016F198C04C
:1004480017F199C018F19AC019F11CC13DF01DC1EE
:100458003EF01EC13FF01FC140F016C141F017C168
:1004680042F018C143F019C144F06DEC11F03DC0E1
:1004780010F13EC011F13FC012F140C013F1000E5F
:1004880001011C6F000E1D6F000E1E6F000E1F6F06
:100498003CD01CC1A0F01DC1A1F01EC1A2F01FC11B
:1004A800A3F0A3EC12F0A0C010F1A1C011F1A2C0FA
:1004B80012F1A3C013F11CC1B8F01DC1B9F01EC1DF
:1004C800BAF01FC1BBF010C170F011C171F012C1B8
:1004D80072F013C173F0000E74EC0EF070C0BCF033
:1004E80071C0BDF072C0BEF073C0BFF091EC16F0E1
:1004F800B8C01CF1B9C01DF1BAC01EF1BBC01FF1D4
:10050800000E0101156F000E146F010E0101206F1E
:100518000A0E01012019D8B41ED001012051040D82
:10052800530EF324F66E3F0EF420F76E0900F550D3
:100538000101105D0900F550010111590900F5503C
:10054800010112590900F55001011359D8A003D02F
:100558000101202BDDD7030E01010E150001C06F2C
:10056800000E01010F150001C16F0001C05100010B
:10057800C111D8B454D000C1D9FF01C1DAFF2D0E82
:100588004CD00101004B012B4AD010C13DF011C1E4
:100598003EF012C13FF013C140F001012051040D9B
:1005A800530EF324F66E3F0EF420F76E0900F5CFD4
:1005B80041F00900F5CF42F00900F5CF43F00A00F9
:1005C800F5CF44F086EC15F03DC016F13EC017F1AA
:1005D8003FC018F140C019F116C13DF017C13EF0F7
:1005E80018C13FF019C140F00A0E416E000E426E6C
:1005F800000E436E000E446E05EC16F03DC016F179
:100608003EC017F13FC018F140C019F10101165161
:10061800300F00C1D9FF01C1DAFFDF6EB2D7010187
:10062800200701012029D8B40ED0AFD700C1D9FFC7
:1006380001C1DAFF300EDF6E0101004B012B010111
:100648001407D8A01507010115BF07D001011551DE
:10065800EDE101011405D8B0E9D701011BBF0CD0A9
:1006680001011B5105E1090E01011A5DD8A004D052
:10067800080E0101206F02D01AC120F1010120519A
:1006880001011A5F000E010120BFFF0E01011B5B73
:10069800010120510101D8B409D000C1D9FF01C11D
:1006A800DAFF2E0EDF6E0101004B012B01012051F4
:1006B8002EEC09F097C008F198C009F199C00AF129
:1006C8009AC00BF11CC182F01DC183F01EC184F0D9
:1006D8001FC185F008C17EF009C17FF00AC180F012
:1006E8000BC181F0DBEC06F07EC0A0F07FC0A1F06A
:1006F80080C0A2F081C0A3F0A3EC12F0A0C010F15A
:10070800A1C011F1A2C012F1A3C013F173D010C19E
:100718003DF011C13EF012C13FF013C140F001019C
:100728002051040D530EF324F66E3F0EF420F76E9D
:100738000900F5CF41F00900F5CF42F00900F5CFE7
:1007480043F00A00F5CF44F086EC15F03DC016F1F1
:100758003EC017F13FC018F140C019F116C13DF075
:1007680017C13EF018C13FF019C140F00A0E416EA2
:10077800000E426E000E436E000E446E05EC16F03D
:100788003DC016F13EC017F13FC018F140C019F145
:1007980001011651300F00C1D9FF01C1DAFFDF6E28
:1007A8000101004B012B10C13DF011C13EF012C1F7
:1007B8003FF013C140F001012051040D530EF32402
:1007C800F66E3F0EF420F76E0900F5CF41F00900F0
:1007D800F5CF42F00900F5CF43F00A00F5CF44F019
:1007E80005EC16F03DC010F13EC011F13FC012F10A
:1007F80040C013F10101200701012029D8B40ED00F
:1008080086D700C1D9FF01C1DAFF300EDF6E0101C2
:10081800004B012B01011A07D8A01B0701011A512F
:1008280001011B11D8B459D0ECD701011A510101AB
:100838001B11D8A40DD001011051010111110101A2
:10084800121101011311D8A403D001011A4B1B2B5B
:10085800800E010120BF7F0E0001C06F01011A51F7
:100868000101205D01011B51800A0001C059D8B067
:1008780003D01AC120F118D001011B51800A0001D0
:10088800C06F0101205101011A5D800E010120BFD6
:100898007F0E0001C059D8B007D0010120510101D5
:1008A8001A6F1B6B1ABF1B07030E01010E150001FF
:1008B800C06F000E01010F150001C16F0001C0518A
:1008C8000001C111D8B409D000C1D9FF01C1DAFFB4
:1008D8002D0EDF6E0101004B012B02C1F6FF03C193
:1008E800F7FF0101024B032B0800F5CF20F10101AE
:1008F8002051D8A46AEF00F000C1D9FF01C1DAFF86
:10090800000EDF6E12000001A751800B0001B46FCA
:100918000001A751A7250001B66F0001A6AF02D0BC
:100928000001B6810001B6510001D8B412D000010F
:10093800B629D8A409D0000E0001A46F000EA56F37
:10094800000EA66F000EA76F0001A68F000E000113
:1009580008D0000E0001A46F000EA56F000EA66F50
:10096800000EA76F0001AB51800B0001B56F0001AD
:10097800B4510001B519D8B402D00001B48D0001FA
:10098800AB51AB250001B56F0001AAAF02D0000141
:10099800B5810001B5510001D8B412D00001B529C4
:1009A800D8A409D0000E0001A86F000EA96F000E90
:1009B800AA6F000EAB6F0001AA8F000E000108D0CD
:1009C800000E0001A86F000EA96F000EAA6F000E9E
:1009D800AB6F0001B6510001B55DD8B024D000015D
:1009E800B4AD03D0800E0001B41BB6C0B7F0B5C0DB
:1009F800B6F0B7C0B5F0A4C0B7F0A8C0A4F0B7C0AF
:100A0800A8F0A5C0B7F0A9C0A5F0B7C0A9F0A6C0C6
:100A1800B7F0AAC0A6F0B7C0AAF0A7C0B7F0ABC09D
:100A2800A7F0B7C0ABF0000E0001B76F0001B651D8
:100A38000001AC6FAD6B0001AC1FAD1FAC4BAD2B13
:100A48000001B5510001AE6FAF6B0001AC51000160
:100A5800AE270001AD510001AF230001AFBF3DD06B
:100A68000001AF5105E11A0E0001AE5DD8A035D0E6
:100A78000001A4510001A5110001A6110001A71150
:100A8800D8B402D0010E01D0000E0001B76F000EDD
:100A98000001A46F000EA56F000EA66F000EA76FD1
:100AA800B5C0B6F020D00001B7A107D00001D8909A
:100AB800B73101090001B76F03D00001D890B733EF
:100AC8000001A4A102D00001B78F0001A735A73308
:100AD800A633A533A4330001B62B0001B55100019C
:100AE800B65DD8A0E0D70001B4BD3FD00001B65133
:100AF8000001D8A40AD0000E0001A46F000EA56F53
:100B0800000EA66F000EA76F12000001A851000189
:100B1800A4270001A9510001A5230001AA51000141
:100B2800A6230001AB510001A7230001A7A1CCD047
:100B38000001B7A109D00001D890B7330001B7511F
:100B480001090001B76F03D00001D890B733000145
:100B5800A4A102D00001B78F0001A735A733A6339F
:100B6800A533A4330001B62BAFD00001A851000172
:100B7800A45D0001A9510001A5590001AA51000175
:100B8800A6590001A751800A0001AC6F0001AB51C2
:100B9800800A0001AC59D8B050D0A4C0ACF0A5C0B0
:100BA800ADF0A6C0AEF0A7C0AFF00001AC1FAD1FFE
:100BB800AE1FAF1FAC2B000EAD23AE23AF23000139
:100BC800A8510001AC250001B06F0001A951000136
:100BD800AD210001B16F0001AA510001AE21000151
:100BE800B26F0001AB510001AF210001B36FFF0EDE
:100BF8000001B0250001A46FFF0E0001B121000122
:100C0800A56FFF0E0001B2210001A66FFF0E0001C3
:100C1800B3210001A76F800E0001B41B0001B76D5E
:100C28000001B7510001D8A418D0010E0001A42773
:100C3800000EA523A623A72310D00001A851000168
:100C4800A45F0001A9510001A55B0001AA510001A0
:100C5800A65B0001AB510001A75B0001A451000194
:100C6800A5110001A6110001A711D8A42AD00001DE
:100C7800B7510001D8A425D0000E0001A46F000EC2
:100C8800A56F000EA66F000EA76F12000001D89086
:100C9800A437A537A637A7370001B7AF02D00001A0
:100CA800A4810001B7A103D0D880000102D00001BF
:100CB800D890B7370001B6510001D8B402D000016E
:100CC800B6070001A6AFE2D7000E0001B56F00011C
:100CD800B7AF0DD0B7C0ACF07F0E0001AC17D8A4E9
:100CE80003D00001A4A103D0010E0001B56F0001DB
:100CF800B5510001D8B426D0010E0001A427000E7A
:100D0800A523A623A7230001A7A11CD0A4C0ACF04B
:100D1800A5C0ADF0A6C0AEF0A7C0AFF00001AF35DA
:100D2800AF33AE33AD33AC33ACC0A4F0ADC0A5F037
:100D3800AEC0A6F0AFC0A7F00001B629D8B402D063
:100D48000001B62B0001B629D8B405D00001B65170
:100D58000001D8A411D0000E0001A46F000EA56FE9
:100D6800000EA66F000EA76F0001B6510001D8A4AF
:100D780003D0000E0001B46F0001B6A103D000013A
:100D8800A68F02D00001A69F0001D890B6310001BD
:100D9800A76F0001B4AF02D00001A78FA4C0A4F0D0
:100DA800A5C0A5F0A6C0A6F0A7C0A7F01200000134
:100DB8008151800B00018A6F00018151812500015A
:100DC800906F000180AF02D0000190810001905126
:100DD8000001D8B410D000019029D8A409D0000E81
:100DE80000017E6F000E7F6F000E806F000E816F16
:100DF8000001808F09D0000E00017E6F000E7F6F0A
:100E0800000E806F000E816F00018551800B00017C
:100E18008A1B00018551852500018B6F000184AF75
:100E280002D000018B8100018B510001D8B410D091
:100E380000018B29D8A409D0000E0001826F000E92
:100E4800836F000E846F000E856F0001848F09D0B8
:100E5800000E0001826F000E836F000E846F000E7B
:100E6800856F00018B510001D8B405D00001905165
:100E78000001D8A40AD0000E00017E6F000E7F6F1B
:100E8800000E806F000E816F120000018451000176
:100E98007E03F3CF95F0F4CF96F000019551000151
:100EA8008C6F8D6B8E6B8F6B000196510001916F6B
:100EB800926B936B946B0001835100017F03F3CF16
:100EC80095F0F4CF96F00001955100018C27000EA3
:100ED8008D238E238F230001965100019127000E48
:100EE8009223932394230001825100018003F3CFBE
:100EF80095F0F4CF96F00001955100018C27000E73
:100F08008D238E238F230001965100019127000E17
:100F18009223932394238EC08FF08DC08EF08CC0C3
:100F28008DF000018C6B0001825100017F03F3CF2B
:100F380095F0F4CF96F00001955100018C2700013F
:100F4800965100018D23000E00018E23000E000132
:100F58008F230001835100017E03F3CF95F0F4CF76
:100F680096F00001955100018C270001965100016F
:100F78008D23000E00018E23000E00018F238EC0EA
:100F88008FF08DC08EF08CC08DF000018C6B00014D
:100F9800825100017E03F3CF95F0F4CF96F0000163
:100FA800955100018C270001965100018D23000EF8
:100FB80000018E23000E00018F23000184510001DF
:100FC8007F03F3CF95F0F4CF96F00001955100011F
:100FD80091270001965100019223000E00019323EE
:100FE800000E000194230001835100018003F3CF18
:100FF80095F0F4CF96F0000195510001912700017A
:10100800965100019223000E00019323000E000167
:1010180094230001845100018003F3CF95F0F4CFAD
:1010280096F0000195510001866F0001965100016C
:10103800876F0001886B0001896B88C089F087C0C1
:1010480088F086C087F00001866B00018651000198
:101058009127000187510001922300018851000166
:10106800932300018951000194238CC086F08DC020
:1010780087F08EC088F08FC089F0190E06D0000165
:10108800D8908933883387338633E82EF8D7000120
:101098008651000191270001875100019223000128
:1010A80088510001932300018951000194238EC0C7
:1010B8008FF08DC08EF08CC08DF000018C6B00011C
:1010C8008B5190C086F00001876B00018627000EC7
:1010D8008723820E000186250001956FFF0E00010F
:1010E80087210001966F15D00001D890913792376B
:1010F8009337943700018FAF02D00001918100012E
:10110800D8908C378D378E378F3700019507D8A048
:101118009607000193AFE8D7000E00018B6F00011E
:101128008FAF24D0FF0E00018C150001866FFF0ED3
:1011380000018D150001876FFF0E00018E1500015B
:10114800886F7F0E00018F150001896F000186519D
:10115800000187110001881100018911D8A403D06A
:10116800000191A103D0010E00018B6F00018B518A
:101178000001D8B423D0010E00019127000E92235C
:1011880093239423000194A119D091C086F092C0B2
:1011980087F093C088F094C089F0000189358933BD
:1011A80088338733863386C091F087C092F088C031
:1011B80093F089C094F00001954B962B000196BFDF
:1011C80010D00001965104E100019529D8A009D05A
:1011D800000E0001916F000E926F800E936F7F0ECC
:1011E8002BD0000196BF07D00001965111E10001F4
:1011F8009505D8B00DD0000E0001916F000E926FCA
:10120800000E936F000E946F000E00018A6F15D0C8
:1012180095C090F0FF0E00019117FF0E92177F0EF8
:101228009317000E9417000190A102D00001938F2C
:101238000001D89090310001946F00018A5100019B
:10124800941391C07EF092C07FF093C080F094C058
:1012580081F0120000019F6F00019FAF25D10001AE
:101268009F6D00019F51800A120FD8A0AAD0000ECE
:101278000001736F0A0E726F000E406E640E3F6EAF
:1012880000019F513D6E3E6A3DBE3E06CDEC15F015
:101298003DC070F03EC071F0DCEC14F00001D89055
:1012A800703771370001D89070377137240E0001FC
:1012B8007027000E00017123EB0E00017025F66EF9
:1012C8003E0E00017121F76E0900F5CF82F009008A
:1012D800F5CF83F00900F5CF84F00A00F5CF85F04B
:1012E800000E0001736F640E726F00019F510001C0
:1012F800706F716B70BF7107DCEC14F00001D8904F
:10130800703771370001D89070377137480E000177
:101318007027000E00017123EB0E00017025F66E98
:101328003E0E00017121F76E0900F5CF7EF009002D
:10133800F5CF7FF00900F5CF80F00A00F5CF81F0F6
:10134800DBEC06F07EC09BF07FC09CF080C09DF077
:1013580081C09EF09BC07EF09CC07FF09DC080F055
:101368009EC081F0000E406E0A0E3F6E00019F5134
:101378003D6E3E6A3DBE3E06CDEC15F0D8903D363A
:101388003E36D8903D363E36EB0E3D24F66E3E0E88
:101398003E20F76E0900F5CF82F00900F5CF83F003
:1013A8000900F5CF84F00A00F5CF85F0DBEC06F0F4
:1013B8007EC097F07FC098F080C099F081C09AF005
:1013C800120000019F51800A750FD8A057D0000E57
:1013D8000001736F0A0E726F00019F510001706F58
:1013E800716B70BF7107DCEC14F00001D890703796
:1013F80071370001D89070377137240E00017027BB
:10140800000E00017123EB0E00017025F66E3E0EF2
:1014180000017121F76E0900F5CF7EF00900F5CFC4
:101428007FF00900F5CF80F00A00F5CF81F0000EBB
:10143800406E0A0E3F6E00019F513D6E3E6A3DBEF2
:101448003E06CDEC15F0D8903D363E36D8903D3668
:101458003E36EB0E3D24F66E3E0E3E20F76E09003A
:10146800F5CF82F00900F5CF83F00900F5CF84F0BD
:101478000A00F5CF85F0DBEC06F09AD700019F5102
:10148800040DEB0EF324F66E3E0EF420F76E090001
:10149800F5CF97F00900F5CF98F00900F5CF99F04E
:1014A8000A00F5CF9AF0120000019F51800A120F2E
:1014B800D8A0AAD0000E0001736F0A0E726F000E3A
:1014C800406E640E3F6E00019F513D6E3E6A3DBE08
:1014D8003E06CDEC15F03DC070F03EC071F0DCEC7E
:1014E80014F00001D890703771370001D890703728
:1014F8007137240E00017027000E000171231F0EA2
:1015080000017025F66E3F0E00017121F76E09008B
:10151800F5CF82F00900F5CF83F00900F5CF84F00C
:101528000A00F5CF85F0000E0001736F640E726F2C
:1015380000019F510001706F716B70BF7107DCEC87
:1015480014F00001D890703771370001D8907037C7
:101558007137480E00017027000E000171231F0E1D
:1015680000017025F66E3F0E00017121F76E09002B
:10157800F5CF7EF00900F5CF7FF00900F5CF80F0B8
:101588000A00F5CF81F0DBEC06F07EC09BF07FC04F
:101598009CF080C09DF081C09EF09BC07EF09CC0F6
:1015A8007FF09DC080F09EC081F0000E406E0A0E54
:1015B8003F6E00019F513D6E3E6A3DBE3E06CDEC3A
:1015C80015F0D8903D363E36D8903D363E361F0E43
:1015D8003D24F66E3F0E3E20F76E0900F5CF82F0EF
:1015E8000900F5CF83F00900F5CF84F00A00F5CFA4
:1015F80085F0DBEC06F07EC097F07FC098F080C0E5
:1016080099F081C09AF0120000019F51800A750F6D
:10161800D8A057D0000E0001736F0A0E726F000138
:101628009F510001706F716B70BF7107DCEC14F093
:101638000001D890703771370001D8907037713732
:10164800240E00017027000E000171231F0E0001F7
:101658007025F66E3F0E00017121F76E0900F5CF77
:101668007EF00900F5CF7FF00900F5CF80F00A0081
:10167800F5CF81F0000E406E0A0E3F6E00019F51BB
:101688003D6E3E6A3DBE3E06CDEC15F0D8903D3627
:101698003E36D8903D363E361F0E3D24F66E3F0E40
:1016A8003E20F76E0900F5CF82F00900F5CF83F0F0
:1016B8000900F5CF84F00A00F5CF85F0DBEC06F0E1
:1016C8009AD700019F51040D1F0EF324F66E3F0EAA
:1016D800F420F76E0900F5CF97F00900F5CF98F0E0
:1016E8000900F5CF99F00A00F5CF9AF0120077ECCF
:1016F80014F083848386838A838C838E010E446EE0
:10170800F40E436EFCEC16F083948396839A839CC4
:10171800839E839EAA0E0001E26F010E0001E36F13
:10172800010E0001E46F010E0001E56F010E0001DA
:10173800E66F010E0001E76FAA0E0001E86F000EC8
:101748000001E96FCF0E1C6EF70E1D6E330E1E6E74
:101758003F0E1F6E000E206E000E216E080E226EC8
:10176800420E236E23EC18F046B293D0020E156E8B
:10177800000E0E6E000E0D6E5A0E196E000E146ECF
:10178800ACA2FED792EC13F081D04CEC17F0010E0E
:101798001CEC13F0BA0E0001786F3F0E0001796F50
:1017A8007CEC17F0020E1CEC13F0900E0001786F21
:1017B8003F0E0001796F7CEC17F0030E1CEC13F060
:1017C8007B0E0001786F3F0E0001796F7CEC17F0FB
:1017D800040E1CEC13F0BA0E0001786F3F0E0001E6
:1017E800796F7CEC17F001C021F102C022F103C02F
:1017F80023F104C024F10101211F221F231F241FEC
:10180800212B000E22232323242309500101212503
:101818000101256F0A50010122210101266F0B5099
:10182800010123210101276F0C500101242101012D
:10183800286F01012851010127110101261105E135
:10184800320E0101255DD8A019D009C001F00AC0E7
:1018580002F00BC003F00CC004F083AE02D0010EFE
:1018680001D0000EFF0A0101216F0101213321334C
:101878008350010121197F0B2119836E23EC18F085
:10188800010E446E2C0E436EFCEC16F046A27DD77A
:10189800839EB5EC16F080A403D0000E1B6E0AD010
:1018A80080B604D0010E1B6E020E03D0020E1B6E12
:1018B800010E156E1B50D8B474D01CC082F01DC028
:1018C80083F01EC084F01FC085F024C021F10101FF
:1018D800226B21BF2207800E01012127000E22233F
:1018E80021C170F022C171F00001000E71BFFF0E1E
:1018F800726F736F010E74EC0EF070C07EF071C0E1
:101908007FF072C080F073C081F0DBEC06F07EC01F
:10191800A0F07FC0A1F080C0A2F081C0A3F0A3EC2A
:1019280012F00001A051196E2550800A7F0FD8A02F
:101938002ED020C082F021C083F022C084F023C0C2
:1019480085F025500001706F000E70BFFF0E716F9B
:10195800726F736F010E74EC0EF070C07EF071C080
:101968007FF072C080F073C081F0DBEC06F07EC0BF
:10197800A0F07FC0A1F080C0A2F081C0A3F0A3ECCA
:1019880012F0A0C00DF0A1C00EF0000E08D0000E9D
:101998000E6E000E0D6E2550020DF3280008146E11
:1019A80005D0000E0E6E000E0D6E146892EC13F04A
:1019B80005C021F106C022F107C023F108C024F1B7
:1019C8000101211F221F231F241F212B000E222368
:1019D800232324230950010121250101256F0A50E1
:1019E800010122210101266F0B5001012321010170
:1019F800276F0C50010124210101286F0101285192
:101A0800010127110101261105E1320E0101255DB1
:101A1800D8A0A8D609C005F00AC006F00BC007F088
:101A28000CC008F016EC12F09DD60001A36F6D0EE5
:101A38000001A365BCD0000E0001736F0A0E726F1F
:101A4800000E406E640E3F6EA3C03DF03E6ACDECC2
:101A580015F03DC070F03EC071F0DCEC14F00001F0
:101A6800D890703771370001D89070377137240ECD
:101A780000017027000E00017123EB0E0001702594
:101A8800F66E3E0E00017121F76E0900F5CF82F067
:101A98000900F5CF83F00900F5CF84F00A00F5CFEF
:101AA80085F0000E0001736F640E726FA3C070F0B2
:101AB8000001716BDCEC14F00001D89070377137BD
:101AC8000001D89070377137480E00017027000E5A
:101AD80000017123EB0E00017025F66E3E0E000129
:101AE8007121F76E0900F5CF7EF00900F5CF7FF080
:101AF8000900F5CF80F00A00F5CF81F0DBEC06F0A5
:101B08007EC09FF07FC0A0F080C0A1F081C0A2F08D
:101B1800000E406E0A0E3F6EA3C03DF03E6ACDEC4B
:101B280015F0D8903D363E36D8903D363E36EB0E11
:101B38003D24F66E3E0E3E20F76E0900F5CF82F08A
:101B48000900F5CF83F00900F5CF84F00A00F5CF3E
:101B580085F09FC07EF0A0C07FF0A1C080F0A2C039
:101B680081F0DBEC06F07EC09BF07FC09CF080C06B
:101B78009DF081C09EF09BC07EF09CC07FF09DC010
:101B880080F09EC081F0000E0001826F000E836F0E
:101B9800000E846F3F0E856FDBEC06F07EC097F079
:101BA8007FC098F080C099F081C09AF012000A0EA8
:101BB8000001A3656CD0000E406E0A0E3F6EA3C0F4
:101BC8003DF03E6ACDEC15F0D8903D363E36D890C3
:101BD8003D363E36EB0E3D24F66E3E0E3E20F76E49
:101BE8000900F5CF82F00900F5CF83F00900F5CFA1
:101BF80084F00A00F5CF85F0000E0001736F0A0E1D
:101C0800726FA3C070F00001716BDCEC14F000017E
:101C1800D890703771370001D89070377137240E1B
:101C280000017027000E00017123EB0E00017025E2
:101C3800F66E3E0E00017121F76E0900F5CF7EF0B9
:101C48000900F5CF7FF00900F5CF80F00A00F5CF45
:101C580081F0DBEC06F07EC09FF07FC0A0F080C072
:101C6800A1F081C0A2F09FC07EF0A0C07FF0A1C00B
:101C780080F0A2C081F0000E0001826F000E836F19
:101C8800000E846F3F0E856FDBEC06F087D70001EE
:101C9800A351040DEB0EF324F66E3E0EF420F76EFE
:101CA8000900F5CF7EF00900F5CF7FF00900F5CFE8
:101CB80080F00A00F5CF81F0000E0001826F000E5F
:101CC800836F000E846F3F0E856FDBEC06F07EC0DD
:101CD80097F07FC098F080C099F081C09AF0120008
:101CE8000001786F000178510001D8B41ED00001BE
:101CF80073AF1BD070C074F071C075F072C076F00D
:101D080073C077F00001741F751F761F771F742B3F
:101D1800000E75237623772374C07AF075C07BF0A4
:101D280076C07CF077C07DF008D070C07AF071C0C2
:101D38007BF072C07CF073C07DF00001705100012F
:101D480071110001721100017311D8A40AD0000E9C
:101D58000001706F000E716F000E726F000E736FCE
:101D68001200960E0001796F08D00001792B00014E
:101D7800D8907D337C337B337A33000E00017A159B
:101D88000001746F000E00017B150001756F000ED5
:101D980000017C150001766FFE0E00017D15000123
:101DA800776F00017451000175110001761100016F
:101DB8007711D8B410D0D9D70001792B010E0001C2
:101DC8007A27000E7B237C237D230001D8907D3366
:101DD8007C337B337A33000E00017A150001746F6F
:101DE800000E00017B150001756F000E00017C15C7
:101DF8000001766FFF0E00017D150001776F00016D
:101E08007451000175110001761100017711D8B4E1
:101E180009D0D2D7000179070001D8907A377B37EB
:101E28007C377D3700017CBF04D0020E0001796148
:101E3800F1D7000179B109D0FF0E00017A17FF0E22
:101E48007B177F0E7C17FF0E7D170001D890793322
:101E580079C074F00001756B766B776B74C077F09E
:101E68000001766B756B746B0001745100017A1375
:101E78000001755100017B130001765100017C13AC
:101E88000001775100017D13000178510001D8B499
:101E980005D0000173AF02D000017D8F7AC070F0C9
:101EA8007BC071F07CC072F07DC073F0120000013D
:101EB800756F0001755141EC18F08A928A968A94E0
:101EC800000E446E640E436EFCEC16F0000E00012A
:101ED800706F010E0001716F010E0001726F000E2C
:101EE80018EC17F0000E446E640E436EFCEC16F00E
:101EF800000E0001706F010E0001716F010E0001EC
:101F0800726F000E18EC17F0000E446E0A0E436E46
:101F1800FCEC16F0000E0001706F010E0001716FED
:101F2800010E0001726F000E18EC17F0000E000190
:101F3800706F010E0001716F000E0001726F000ECC
:101F480018EC17F0000E0001706F010E0001716FA0
:101F5800000E0001726F000E18EC17F0000E000161
:101F6800706F000E0001716F000E0001726F010E9C
:101F780018EC17F0000E0001706F000E0001716F71
:101F8800000E0001726F000E18EC17F0000E000131
:101F9800706F000E0001716F000E0001726F010E6C
:101FA80018EC17F0000E0001706F000E0001716F41
:101FB800000E0001726F000E18EC17F0000E000101
:101FC800706F000E0001716F010E0001726F000E3C
:101FD80018EC17F0000E0001706F000E0001716F11
:101FE800000E0001726F000E18EC17F0010E0001D0
:101FF800706F010E0001716F000E0001726F000E0C
:1020080018EC17F04CEC17F0000E0001736F000E7F
:1020180033EC17F012003FC070F00001716B726B67
:102028003E340001703701E37181000170510001F5
:10203800786F00017851D8A409D0000E3D6E000ECB
:102048003E6E000E3F6E000E406E120043C070F0F0
:102058000001716B726B42340001703701E37181CA
:10206800000170510001776F00017751D8A409D0A1
:10207800000E3D6E000E3E6E000E3F6E000E406E6E
:1020880012003E8EFF0E3D16FF0E3E16000E3F1646
:10209800428EFF0E4116FF0E4216000E4316000E2A
:1020A8000001736F000E746F000E756F000E766F6F
:1020B8007F0E0001785F00017751980F0001785F6B
:1020C800180E0001776F0001D89073377437753791
:1020D800763741503D5C42503E5843503F58D8A057
:1020E80008D041503D5E42503E5A43503F5A00018D
:1020F8007381D8903D363E363F360001772FE3D7BF
:10210800000178AF19D000017851800A970FD8B034
:1021180009D0000E3D6E000E3E6E000E3F6E000EA2
:10212800406E12000001D8907633753374337333E0
:102138000001783FF7D71AD0170E0001786511D043
:10214800000E3D6E000E3E6E000E3F6E000E406E9D
:1021580012000001D890733774377537763700014D
:102168007807000178510001D8A4F3D773C03DF077
:1021780074C03EF075C03FF076C040F01200000E0B
:102188003D140001706F000E3E140001716F800E47
:102198003F140001726F7F0E40140001736F00013D
:1021A8007051000171110001721100017311D8A45E
:1021B80008D0000E3D6E000E3E6E000E3F6E000E03
:1021C800406E000E41140001706F000E42140001B1
:1021D800716F800E43140001726F7F0E441400016A
:1021E800736F00017051000171110001721100013B
:1021F8007311D8A408D0000E416E000E426E000E76
:10220800436E000E446E40AE22D03DC070F03EC01A
:1022180071F03FC072F040C073F00001701F711F71
:10222800721F731F702B000E712372237323000E0D
:10223800000170253D6E000E000171213E6E000EFA
:10224800000172213F6E800E00017321406E44AE82
:1022580022D041C070F042C071F043C072F044C057
:1022680073F00001701F711F721F731F702B000E17
:10227800712372237323000E00017025416E000E36
:1022880000017121426E000E00017221436E800E22
:1022980000017321446E000E3D1A000E3E1A000E16
:1022A8003F1A800E401A000E411A000E421A000E04
:1022B800431A800E441A41503D5C42503E584350E8
:1022C8003F5844504058D8B002D0D8901200D88017
:1022D80012003F3440340001756F00017551D8A4D5
:1022E80009D0000E3D6E000E3E6E000E3F6E000ED1
:1022F800406E1200433444340001746F000174517D
:10230800D8A409D0000E3D6E000E3E6E000E3F6E42
:10231800000E406E12003F8EFF0E3D16FF0E3E1659
:10232800FF0E3F16000E4016438EFF0E4116FF0E9D
:102338004216FF0E4316000E4416000E0001706F81
:10234800000E716F000E726F000E736F7F0E00012A
:10235800755F00017451A00F0001755F200E000128
:10236800746F0001D89070377137723773374150E6
:102378003D5C42503E5843503F5844504058D8A0C6
:102388000AD041503D5E42503E5A43503F5A445055
:10239800405A00017081D8903D363E363F3640366F
:1023A8000001742FDED7000175AF19D000017551F7
:1023B800800A9F0FD8B009D0000E3D6E000E3E6E09
:1023C800000E3F6E000E406E12000001D89073336D
:1023D8007233713370330001753FF7D71AD01F0E6F
:1023E8000001756511D0000E3D6E000E3E6E000EA8
:1023F8003F6E000E406E12000001D89070377137A2
:102408007237733700017507000175510001D8A4B0
:10241800F3D770C03DF071C03EF072C03FF073C09A
:1024280040F01200010E406E160E3F6ED8C03DF00F
:10243800D9C03EF068EC16F03DC070F03EC071F0B7
:102448000001726B736B000E74EC0EF070C0D0F06C
:1024580071C0D1F072C0D2F073C0D3F04CEC17F059
:10246800010E1CEC13F0A50E0001786F3F0E000161
:10247800796F7CEC17F0020E1CEC13F0CF0E000104
:10248800786F3F0E0001796F7CEC17F01B50D8B4C1
:1024980016D0020E1518D8A409D0F90E0001786FCD
:1024A8003F0E0001796F7CEC17F011D0EF0E0001A0
:1024B800786F3F0E0001796F7CEC17F008D0FD0EA5
:1024C8000001786F3F0E0001796F7CEC17F0030E66
:1024D8001CEC13F0290E0101006F010E0101016FC0
:1024E800DB0E0101026F3F0E0101036FD0C004F142
:1024F800D1C005F1D2C006F1D3C007F162EC00F0FB
:10250800000E0101346F290E0001786F010E0001E1
:10251800796FD0EC17F0F40E0001786F3F0E0001D0
:10252800796F7CEC17F0040E1CEC13F0BA0E000166
:10253800786F3F0E0001796F7CEC17F012000001F4
:10254800A235A335456E4550D8A40AD0000E000127
:10255800A06F000EA16F000EA26F000EA36F1200F5
:10256800A0C0A4F0A1C0A5F0A2C0A6F0A3C0A7F087
:10257800200E06D00001D890A733A633A533A43384
:10258800E82EF8D70001A451446E0001A28FFF0E77
:102598000001A017FF0EA117FF0EA217000EA31728
:1025A800960E455E45AE18D04550800A970FD8B0B4
:1025B8000AD0000E0001A06F000EA16F000EA26FDE
:1025C800000EA36F12000001D890A333A233A133E9
:1025D800A033453EF8D717D01F0E456411D0000E22
:1025E8000001A06F000EA16F000EA26F000EA36F76
:1025F80012000001D890A037A137A237A3374506AB
:102608004550D8A4F6D74450D8B409D00001A31F28
:10261800A21FA11FA06D000EA123A223A323A0C067
:10262800A0F0A1C0A1F0A2C0A2F0A3C0A3F0120024
:102638000001736F64D0000E0001706F000E00017E
:10264800716F000E0001726F010E18EC17F0000E8A
:102658000001706F000E0001716F000E0001726FB3
:10266800000E18EC17F01200010E0001706F000E3A
:102678000001716F000E0001726F010E18EC17F067
:10268800000E0001706F000E0001716F000E000156
:10269800726F000E18EC17F01200000E0001706F38
:1026A800000E0001716F010E0001726F010E18EC2F
:1026B80017F0010E0001706F000E0001716F000E1F
:1026C8000001726F000E18EC17F01200010E0001E5
:1026D800706F000E0001716F010E0001726F010E24
:1026E80018EC17F0010E0001706F000E0001716FF9
:1026F800000E0001726F000E18EC17F012000001B6
:102708007351010AD8B497D7030AD8B4ADD7010AD0
:10271800D8B4C3D7070AD8A41200D8D70E50186E59
:102728001850D8A402D0400E186E0DC017F015C06E
:10273800E3F018C0E4F017C0E5F019C0E6F014C0E3
:10274800E7F0000E426E050E426401D017D04250E9
:10275800010DE20EF324D96E000EF420DA6EDF507C
:10276800D8A40AD04250010DE20EF324D96E000E0F
:10277800F420DA6E010EDF6E422AE5D7000E1A6EDB
:10278800010E166E050E166401D016D01650010DF6
:10279800C20EF324D96E000EF420DA6E1650010D25
:1027A800E20EF324E16E000EF420E26EDE50E6182D
:1027B800D8B41A2A162AE6D7ACA21200050E1A189F
:1027C800D8B41200E20E3E6E000E3F6EBDEC17F05C
:1027D800000E436E050E436401D012004350010DF4
:1027E800E20EF324D96E000EF420DA6E4350010D88
:1027F800C20EF324E16E000EF420E26EDFCFE7FF95
:10280800432AE8D70600E9CF64F0EACF65F0E1CFC4
:1028180066F0E2CF67F0D9CF68F0DACF69F0F3CF8E
:102828006AF0F4CF6BF0F6CF6CF0F7CF6DF0F8CF1D
:102838006EF0F5CF6FF09EAA38D0DA0E386E000E23
:10284800396E070E3A6E92EC17F0AA0E0001DA19EB
:10285800D8A42AD0AA0E0001E019D8A425D00001D6
:10286800DBA102D0468001D04690DCC013F0800E78
:102878001318D8A402D0000E136EDDC012F0DEC00B
:1028880010F0DFC00FF0125013C060F00001616B50
:1028980060C061F00001606B000160110001D86F39
:1028A800000161510001D96F9E9A6FC0F5FF6EC09B
:1028B800F8FF6DC0F7FF6CC0F6FF6BC0F4FF6AC08D
:1028C800F3FF69C0DAFF68C0D9FF67C0E2FF66C0DE
:1028D800E1FF65C0EAFF64C0E9FF63C0FBFF62C0B7
:1028E800FAFF48921100000E896E0F0E926E000ECC
:1028F8008A6E9368000E8B6EB00E946E000E8C6E0E
:10290800000E956E000E8D6E000E966E9E9AA19228
:10291800D08E9F8AA2924F0EAB16AC9ACF0E9D1600
:10292800000E446E0A0E436EFCEC16F0000E3E6E6E
:10293800670E3D6E7C0E38EC16F00D0EC16EC29817
:10294800C296C294C08AC088C096C084C092C08013
:10295800C09EC2808384000E446E0A0E436EFCEC57
:1029680016F08386010EA8EC17F0100E5BEC0FF042
:10297800000E3AEC18F04CEC17F0010E1CEC13F0BA
:10298800E70E0001786F3F0E0001796F7CEC17F0BD
:1029980083948396630EB36EC00EB26E9D8AA08236
:1029A800F28EF28CAB8E010EB16E4CEC17F0120069
:1029B800000E0001756F000173AF08D00001726D41
:1029C800731FD8B0732B010E0001756F000171AF32
:1029D80008D00001706D711FD8B0712B010E000175
:1029E800751B000E0001776F000E766F00017251A3
:1029F80000017311D8B42CD0010E0001746F06D0F9
:102A08000001D890723773370001742B000173AF3F
:102A1800F7D70001D8907637773700017251000157
:102A2800705D0001735100017159D8A00AD00001EE
:102A380072510001705F000173510001715B000168
:102A480076810001D890733372330001742FE1D777
:102A5800000175510001D8B405D00001766D771FCB
:102A6800D8B0772B76C070F077C071F012000001F3
:102A7800776F8A8200017745010B0001736F0001AF
:102A88007745E846030B010B0001746F00017739A5
:102A9800E842070B010B0001756F000177390F0B36
:102AA800010B0001766F74C070F075C071F076C0CC
:102AB80072F00001735118EC17F000017739E846FD
:102AC8001F0B010B0001736F00017741E8423F0BB8
:102AD800010B0001746F0001D8907731010B0001E0
:102AE800756F00017751010B0001766F74C070F0AB
:102AF80075C071F076C072F00001735118EC17F0D0
:102B08008A921200000E0001706F000E716F000EA5
:102B1800726F000E736F4150421043104410D8B4C6
:102B28002FD0010E0001746F07D0D890413642367D
:102B3800433644360001742B44AEF7D70001D890D1
:102B4800703771377237733741503D5C42503E5889
:102B580043503F5844504058D8A00AD041503D5E99
:102B680042503E5A43503F5A4450405A00017081E7
:102B7800D89044324332423241320001742FDED7BA
:102B880070C03DF071C03EF072C03FF073C040F0BD
:102B98001200000E426E3EAE06D03D6C3E1ED8B00E
:102BA8003E2A010E426E40AE04D03F6C401ED8B0A3
:102BB800402A3F504010D8B418D0010E416E04D0BE
:102BC800D8903F364036412A40AEFAD73F503D5C58
:102BD80040503E58D8A004D03F503D5E40503E5A29
:102BE800D89040323F32412EF1D74250D8B404D069
:102BF8003D6C3E1ED8B03E2A3DC03DF03EC03EF082
:102C080012004150421043104410D8B424D0010E91
:102C1800456E06D0D8904136423643364436452A6A
:102C280044AEF8D741503D5C42503E5843503F585F
:102C380044504058D8A008D041503D5E42503E5ABA
:102C480043503F5A4450405AD8904432433242325B
:102C58004132452EE7D73DC03DF03EC03EF03FC073
:102C68003FF040C040F012003F6E000EAC6E000E08
:102C7800AB6E3FB0AC883FA202D0AC8CAB8C3FB4FB
:102C8800AC8E3FA602D0AB8801D0AB8A3FB8AC84EB
:102C98009E983FBAAB863FAC02D09D8A01D09D9AE0
:102CA8009E9A3FAE02D09D8801D09D983DC0AFFF4F
:102CB8003E50B06EAC8AAB8E949C948EACA8120039
:102CC800ACBE1200948C1200000E426E000E416ED3
:102CD8003F504010D8B41CD0010E436E04D0D89099
:102CE8003F364036432A40AEFAD7D890413642366E
:102CF8003F503D5C40503E58D8A005D03F503D5E07
:102D080040503E5A4180D89040323F32432EEDD752
:102D180041C03DF042C03EF01200000E0001BC1B55
:102D2800000EBD1B000EBE1B800EBF1BB8C0A4F05A
:102D3800B9C0A5F0BAC0A6F0BBC0A7F0BCC0A8F047
:102D4800BDC0A9F0BEC0AAF0BFC0ABF087EC04F0CC
:102D5800A4C0B8F0A5C0B9F0A6C0BAF0A7C0BBF02F
:102D68001200000E166E010E166401D01200C28207
:102D7800C2B2FED71650010D240EF324D96E000EF0
:102D8800F420DA6EC450800FDF6EC2A402D0010EA8
:102D980001D0000EFF0A3D6E3D463D46C2503D182B
:102DA800FB0B3D18C26E162ADED701EE29F00C0E79
:102DB800EE6AE806FDE100EEC2F0280EEE6AE806CB
:102DC800FDE1466A00EE01F0250EEE6AE806FDE137
:102DD8008A0EF66E300EF76E000EF86E0900F5CF0B
:102DE80047F048904892000EF86E00017BEF0BF018
:102DF80047C03DF03E6A43C03FF044C040F0E3ECBA
:102E080017F03DC0EAF03EC0EBF007D0500EE82EB8
:102E1800FED70001EA07D8A0EB070001EA5100013C
:102E2800EB11D8B41200F2D7456E000172B102D08E
:102E38008A9801D08A88000171B102D08A9A01D09B
:102E48008A8A000170B102D08A9C01D08A8C45B070
:102E580002D08A9E01D08A8E05EC18F0120000017B
:102E6800746F000E0001706F000E0001716F000E8C
:102E78000001726F000E18EC17F0010E0001706F60
:102E880074C071F073C072F0010E18EC17F01200E4
:102E9800000E0001706F000E0001716F000E00013E
:102EA800726F000E18EC17F0000E0001706F000E24
:102EB8000001716F010E0001726F000E18EC17F01F
:102EC80012003D503E103F104010D8B408D0000EFC
:102ED8003D1A000E3E1A000E3F1A800E401A3DC0E1
:102EE8003DF03EC03EF03FC03FF040C040F0120011
:102EF8000BD078C0F6FF79C0F7FF0800F5503BEC1F
:102F080015F00001784B792B78C0F6FF79C0F7FFF0
:102F18000800F5500009D8B41200EBD7000E3C6E3B
:102F28000ED09EAAFED714EC18F03B6E38C0D9FF1D
:102F380039C0DAFF3BC0DFFF384A392A3C2A3A5009
:102F48003C5CD8B01200EDD70001706F000E000194
:102F5800716F08D0030E446EE80E436EFCEC16F059
:102F68000001712B000170510001715DD8B0120091
:102F7800F1D7ACA2FED73EC0D9FF3FC0DAFFDF5081
:102F880031EC18F03EC0D9FF3FC0DAFF3E4A3F2A75
:102F9800DF50D8B41200EDD70AD078C0D9FF79C075
:102FA800DAFFDF503BEC15F00001784B792B78C045
:102FB800D9FF79C0DAFFDF50D8B41200EED73D5000
:102FC8003F02F3CF41F0F4CF42F03D504002F350BE
:102FD80042263E503F02F350422641C03DF042C0D7
:102FE8003EF012003F6E000E3E6E3A0E3F6005D076
:102FF8002F0E3F6402D0010E3E6E3EC03DF03D30C4
:1030080012008A86000E446E010E436EFCEC16F028
:103018008A96000E446E010E436EFCEC16F0120008
:10302800F20E1116ABAC03D01190ABB01180ABB45B
:103038001184ABB21186AECF37F03750120081A69B
:1030480002D046B41200469481A6120046B202D0BD
:10305800468201D04692468412003D6EACAC03D045
:10306800AC9011B2AC803DC0ADFF12003D6E3DB0DA
:1030780002D08B9401D08B8412003D6E3DC047F086
:04308800120014001E
:103EEA00000000803FCDCCCC3D0AD7233C6F128323
:103EFA003A17B7D138ACC52737BD37863595BFD6FF
:103F0A003377CC2B325F708930FFE6DB2E08E53C35
:103F1A001E6042A20D0000803F000020410000C840
:103F2A004200007A4400401C460050C347002474F3
:103F3A00498096184B20BCBE4C286B6E4EF9021570
:103F4A0050EC78AD60CAF24971010000000A000025
:103F5A000064000000E803000010270000A08601AA
:103F6A000040420F008096980000E1F50500CA9AC9
:103F7A003B5475726E207468652073776974636840
:103F8A00204F4E2120003D3D3E2056454849434C96
:103F9A004520204F4646203C3D3D003D3D3D2056B4
:103FAA00454849434C452044415441203D3D3D004C
:103FBA003D3D3D3D3D3D3D3D3D3D3D3D3D3D3D3D27
:103FCA003D3D3D3D00446972656374696F6E3A20F8
:103FDA000053706565643A20252E3366005761697F
:103FEA00742E2E2E00424B5744004B6D2F6800460C
:063FFA00574400500000D6
:020000040020DA
:08000000FFFFFFFFFFFFFFFF00
:020000040030CA
:0E000000FF021F1EFF8281FF0FC00FE00F40A6
:00000001FF
