:0400000060EF00F0BD
:0E0008004782FACF62F0FBCF63F0F7ED13F002
:100018004780D8CF24F0E8CF25F0E0CF26F0FACFFC
:1000280027F0FBCF28F0E9CF29F0EACF2AF0E1CF7B
:100038002BF0E2CF2CF0D9CF2DF0DACF2EF0F3CF82
:100048002FF0F4CF30F0F6CF31F0F7CF32F0F8CF11
:1000580033F0F5CF34F0A1A20BD0010E0926000E23
:100068000A220B220C22630EB36EC00EB26EA1924E
:1000780034C0F5FF33C0F8FF32C0F7FF31C0F6FFD8
:1000880030C0F4FF2FC0F3FF2EC0DAFF2DC0D9FF18
:100098002CC0E2FF2BC0E1FF2AC0EAFF29C0E9FF1C
:1000A80028C0FBFF27C0FAFF26C0E0FF25C0E8FFF5
:1000B80024C0D8FF4790100029EF17F0C40E0101A3
:1000C800046F000E0101056F7AEF04F0250E01019F
:1000D8001819D8B408D0C0C0D9FFC1C0DAFF18C1F8
:1000E800DFFF77EF04F0000E0101076F000E066FC7
:1000F800C2C0F6FFC3C0F7FF0800F5502E0AD8A407
:1001080034D00101078D0001C24BC32B000E010141
:10011800136F000E126F1ED012C13CF013C13DF0D8
:10012800000E3F6E0A0E3E6E31EC18F0C2C0F6FFAC
:10013800C3C0F7FF0800F5503C26000E3D22D00E44
:100148003C240101126FFF0E3D200101136F0001D5
:10015800C24BC32BC2C0F6FFC3C0F7FF0800F5505F
:1001680055EC18F0D8A00CD0D7D7000E0101136FAA
:10017800000E126F0101078903D00101078513D012
:10018800C2C0F6FFC3C0F7FF0001C24BC32B080073
:10019800F5CF18F101011851000AD8B4B6D3660A90
:1001A800D8B4EBD7A3D3070E01010715D8B446D3AB
:1001B800010107A905D0000E0101136F060E126F89
:1001C80004C1D9FF05C1DAFFDECF14F1DECF15F186
:1001D800DECF16F1DECF17F1040E01010427000E61
:1001E8000523010117AF15D014C13CF015C13DF02E
:1001F80016C13EF017C13FF0B2EC17F03CC014F145
:100208003DC015F13EC016F13FC017F1030E0101C4
:100218000613000E01010D6F000E0C6F0101145141
:10022800010115110101161101011711D8B48DD062
:10023800010116351735820F01010C6F01010D6B95
:10024800FF0E0D2301010C07D8A00D070CC13CF0CF
:100258000DC13DF0000E3F6E030E3E6E31EC18F0FE
:100268003CC00CF13DC00DF10CC170F00DC171F036
:10027800000E0001736F0A0E726FCDEC14F070C09F
:100288000CF171C00DF101010DAF04D001010C0793
:10029800D8A00D0701010C51000837EC09F097C0F0
:1002A8000EF198C00FF199C010F19AC011F10EC16A
:1002B8007EF00FC17FF010C180F011C181F014C130
:1002C80082F015C183F016C184F017C185F0E4EC03
:1002D80006F07EC00EF17FC00FF180C010F181C022
:1002E80011F10EC170F00FC171F010C172F011C19F
:1002F80073F0000E0001746F000E756F800E766F3C
:100308003F0E776FC2EC11F00001D8B005D00101A3
:100318000C07D8A00D0719D00EC170F00FC171F0ED
:1003280010C172F011C173F0000E0001746F000E5D
:10033800756F200E766F410E776FC2EC11F00001D9
:10034800D8A003D001010C4B0D2B010113BF08D01D
:100358000101135123E10D0E0101125DD8B01ED029
:1003680014C1A4F015C1A5F016C1A6F017C1A7F0D5
:100378000101125151EC0DF097C0A8F098C0A9F0F6
:1003880099C0AAF09AC0ABF090EC04F0A4C014F1A4
:10039800A5C015F1A6C016F1A7C017F101010DBF40
:1003A80008D001010D512EE10A0E01010C5DD8B0F3
:1003B80029D0010114510101151101011611010182
:1003C8001711D8B46DD014C1A0F015C1A1F016C191
:1003D800A2F017C1A3F0FBEC12F00001A05100013C
:1003E800A1110001A2110001A311D8A459D0010143
:1003F8000DBF56D001010D5105E1020E01010C5D42
:10040800D8A04ED00EC170F00FC171F010C172F0BB
:1004180011C173F05F0E0001746F700E756F890E55
:10042800766F400E776FC2EC11F00001D8B003D0A0
:100438000101F70E02D00101F80E0C27FF0E0D2363
:1004480001010C5137EC09F097C00EF198C00FF17B
:1004580099C010F19AC011F114C170F015C171F072
:1004680016C172F017C173F00EC174F00FC175F0A8
:1004780010C176F011C177F013EC11F070C008F1DB
:1004880071C009F172C00AF173C00BF1000E0101CD
:10049800146F000E156F000E166F000E176F3CD00C
:1004A80014C1A0F015C1A1F016C1A2F017C1A3F0A4
:1004B800FBEC12F0A0C008F1A1C009F1A2C00AF13A
:1004C800A3C00BF114C1B8F015C1B9F016C1BAF048
:1004D80017C1BBF008C170F009C171F00AC172F010
:1004E8000BC173F0000EACEC0EF070C0BCF071C024
:1004F800BDF072C0BEF073C0BFF0E1EC16F0B8C03A
:1005080014F1B9C015F1BAC016F1BBC017F1000E4D
:1005180001010D6F000E0C6F010E0101186F0A0E1C
:1005280001011819D8B41ED001011851040D530E39
:10053800F324F66E3F0EF420F76E0900F550010122
:10054800085D0900F550010109590900F55001013C
:100558000A590900F55001010B59D8A003D001012F
:10056800182BDDD7030E010106150001C86F000E18
:10057800010107150001C96F0001C8510001C91127
:10058800D8B455D0C0C0D9FFC1C0DAFF2D0E4DD0A8
:100598000001C04BC12B4BD008C170F009C171F0EC
:1005A8000AC172F00BC173F001011851040D530E0A
:1005B800F324F66E3F0EF420F76E0900F5CF74F0C1
:1005C8000900F5CF75F00900F5CF76F00A00F5CFF0
:1005D80077F02CEC15F070C00EF171C00FF172C0FD
:1005E80010F173C011F10EC170F00FC171F010C19C
:1005F80072F011C173F00A0E0001746F000E756F6E
:10060800000E766F000E776FCFEC15F070C00EF10C
:1006180071C00FF172C010F173C011F101010E51D8
:10062800300FC0C0D9FFC1C0DAFFDF6EB1D70101FA
:10063800180701011829D8B40ED0AED7C0C0D9FF09
:10064800C1C0DAFF300EDF6E0001C04BC12B0101C3
:100658000C07D8A00D0701010DBF07D001010D51EE
:10066800EDE101010C05D8B0E9D7010113BF0CD0A9
:100678000101135105E1090E0101125DD8A004D052
:10068800080E0101186F02D012C118F101011851AA
:100698000101125F000E010118BFFF0E0101135B7B
:1006A800010118510101D8B409D0C0C0D9FFC1C097
:1006B800DAFF2E0EDF6E0001C04BC12B010118516D
:1006C80037EC09F097C000F198C001F199C002F128
:1006D8009AC003F114C182F015C183F016C184F0E9
:1006E80017C185F000C17EF001C17FF002C180F022
:1006F80003C181F0E4EC06F07EC0A0F07FC0A1F059
:1007080080C0A2F081C0A3F0FBEC12F0A0C008F1F9
:10071800A1C009F1A2C00AF1A3C00BF174D008C1AD
:1007280070F009C171F00AC172F00BC173F00101D8
:100738001851040D530EF324F66E3F0EF420F76E95
:100748000900F5CF74F00900F5CF75F00900F5CF71
:1007580076F00A00F5CF77F02CEC15F070C00EF1AA
:1007680071C00FF172C010F173C011F10EC170F0B9
:100778000FC171F010C172F011C173F00A0E0001BF
:10078800746F000E756F000E766F000E776FCFECEA
:1007980015F070C00EF171C00FF172C010F173C086
:1007A80011F101010E51300FC0C0D9FFC1C0DAFFED
:1007B800DF6E0001C04BC12B08C170F009C171F098
:1007C8000AC172F00BC173F001011851040D530EE8
:1007D800F324F66E3F0EF420F76E0900F5CF74F09F
:1007E8000900F5CF75F00900F5CF76F00A00F5CFCE
:1007F80077F0CFEC15F070C008F171C009F172C044
:100808000AF173C00BF10101180701011829D8B4C6
:100818000ED085D7C0C0D9FFC1C0DAFF300EDF6E59
:100828000001C04BC12B01011207D8A01307010119
:10083800125101011311D8B459D0ECD7010112514A
:1008480001011311D8A40DD00101085101010911AA
:1008580001010A1101010B11D8A403D00101124BA7
:10086800132B800E010118BF7F0E0001C86F010114
:1008780012510101185D01011351800A0001C85984
:10088800D8B003D012C118F118D001011351800A51
:100898000001C86F010118510101125D800E0101AC
:1008A80018BF7F0E0001C859D8B007D001011851F0
:1008B8000101126F136B12BF1307030E0101061516
:1008C8000001C86F000E010107150001C96F000182
:1008D800C8510001C911D8B409D0C0C0D9FFC1C0DE
:1008E800DAFF2D0EDF6E0001C04BC12BC2C0F6FF30
:1008F800C3C0F7FF0001C24BC32B0800F5CF18F1A6
:1009080001011851D8A46AEF00F0C0C0D9FFC1C0D6
:10091800DAFF000EDF6E12000001A751800B000104
:10092800B46F0001A751A7250001B66F0001A6AF5B
:1009380002D00001B6810001B6510001D8B412D02E
:100948000001B629D8A409D0000E0001A46F000E3A
:10095800A56F000EA66F000EA76F0001A68F000EF0
:10096800000108D0000E0001A46F000EA56F000E54
:10097800A66F000EA76F0001AB51800B0001B56F89
:100988000001B4510001B519D8B402D00001B48DEA
:100998000001AB51AB250001B56F0001AAAF02D031
:1009A8000001B5810001B5510001D8B412D0000191
:1009B800B529D8A409D0000E0001A86F000EA96FB0
:1009C800000EAA6F000EAB6F0001AA8F000E000187
:1009D80008D0000E0001A86F000EA96F000EAA6FC4
:1009E800000EAB6F0001B6510001B55DD8B024D040
:1009F8000001B4AD03D0800E0001B41BB6C0B7F03F
:100A0800B5C0B6F0B7C0B5F0A4C0B7F0A8C0A4F0A0
:100A1800B7C0A8F0A5C0B7F0A9C0A5F0B7C0A9F0A5
:100A2800A6C0B7F0AAC0A6F0B7C0AAF0A7C0B7F092
:100A3800ABC0A7F0B7C0ABF0000E0001B76F000164
:100A4800B6510001AC6FAD6B0001AC1FAD1FAC4BD4
:100A5800AD2B0001B5510001AE6FAF6B0001AC5179
:100A68000001AE270001AD510001AF230001AFBF67
:100A78003DD00001AF5105E11A0E0001AE5DD8A0CE
:100A880035D00001A4510001A5110001A6110001F3
:100A9800A711D8B402D0010E01D0000E0001B76F23
:100AA800000E0001A46F000EA56F000EA66F000EC9
:100AB800A76FB5C0B6F020D00001B7A107D00001DC
:100AC800D890B73101090001B76F03D00001D89061
:100AD800B7330001A4A102D00001B78F0001A735E8
:100AE800A733A633A533A4330001B62B0001B551B3
:100AF8000001B65DD8A0E0D70001B4BD3FD0000129
:100B0800B6510001D8A40AD0000E0001A46F000E4F
:100B1800A56F000EA66F000EA76F12000001A85166
:100B28000001A4270001A9510001A5230001AA5131
:100B38000001A6230001AB510001A7230001A7A1D2
:100B4800CCD00001B7A109D00001D890B73300017B
:100B5800B75101090001B76F03D00001D890B7332E
:100B68000001A4A102D00001B78F0001A735A73367
:100B7800A633A533A4330001B62BAFD00001A8518A
:100B88000001A45D0001A9510001A5590001AA5165
:100B98000001A6590001A751800A0001AC6F0001AD
:100BA800AB51800A0001AC59D8B050D0A4C0ACF009
:100BB800A5C0ADF0A6C0AEF0A7C0AFF00001AC1F55
:100BC800AD1FAE1FAF1FAC2B000EAD23AE23AF235E
:100BD8000001A8510001AC250001B06F0001A95126
:100BE8000001AD210001B16F0001AA510001AE2141
:100BF8000001B26F0001AB510001AF210001B36FDA
:100C0800FF0E0001B0250001A46FFF0E0001B12105
:100C18000001A56FFF0E0001B2210001A66FFF0EB3
:100C28000001B3210001A76F800E0001B41B000171
:100C3800B76D0001B7510001D8A418D0010E00010A
:100C4800A427000EA523A623A72310D00001A8518E
:100C58000001A45F0001A9510001A55B0001AA5190
:100C68000001A65B0001AB510001A75B0001A45184
:100C78000001A5110001A6110001A711D8A42AD0CE
:100C88000001B7510001D8A425D0000E0001A46FBF
:100C9800000EA56F000EA66F000EA76F12000001D0
:100CA800D890A437A537A637A7370001B7AF02D029
:100CB8000001A4810001B7A103D0D880000102D0AF
:100CC8000001D890B7370001B6510001D8B402D05E
:100CD8000001B6070001A6AFE2D7000E0001B56F0C
:100CE8000001B7AF0DD0B7C0ACF07F0E0001AC1754
:100CF800D8A403D00001A4A103D0010E0001B56F50
:100D08000001B5510001D8B426D0010E0001A42776
:100D1800000EA523A623A7230001A7A11CD0A4C0C9
:100D2800ACF0A5C0ADF0A6C0AEF0A7C0AFF0000112
:100D3800AF35AF33AE33AD33AC33ACC0A4F0ADC0D8
:100D4800A5F0AEC0A6F0AFC0A7F00001B629D8B490
:100D580002D00001B62B0001B629D8B405D0000195
:100D6800B6510001D8A411D0000E0001A46F000EE6
:100D7800A56F000EA66F000EA76F0001B651000107
:100D8800D8A403D0000E0001B46F0001B6A103D0AF
:100D98000001A68F02D00001A69F0001D890B631AD
:100DA8000001A76F0001B4AF02D00001A78FA4C053
:100DB800A4F0A5C0A5F0A6C0A6F0A7C0A7F0120091
:100DC80000018151800B00018A6F0001815181254A
:100DD8000001906F000180AF02D0000190810001F6
:100DE80090510001D8B410D000019029D8A409D09E
:100DF800000E00017E6F000E7F6F000E806F000EE8
:100E0800816F0001808F09D0000E00017E6F000EF7
:100E18007F6F000E806F000E816F00018551800B7F
:100E280000018A1B00018551852500018B6F000197
:100E380084AF02D000018B8100018B510001D8B42E
:100E480010D000018B29D8A409D0000E0001826FB0
:100E5800000E836F000E846F000E856F0001848F73
:100E680009D0000E0001826F000E836F000E846FA0
:100E7800000E856F00018B510001D8B405D0000128
:100E880090510001D8A40AD0000E00017E6F000E18
:100E98007F6F000E806F000E816F12000001845179
:100EA80000017E03F3CF95F0F4CF96F00001955141
:100EB80000018C6F8D6B8E6B8F6B0001965100015A
:100EC800916F926B936B946B0001835100017F03C8
:100ED800F3CF95F0F4CF96F00001955100018C27DF
:100EE800000E8D238E238F23000196510001912738
:100EF800000E922393239423000182510001800362
:100F0800F3CF95F0F4CF96F00001955100018C27AE
:100F1800000E8D238E238F23000196510001912707
:100F2800000E9223932394238EC08FF08DC08EF0F1
:100F38008CC08DF000018C6B0001825100017F0391
:100F4800F3CF95F0F4CF96F00001955100018C276E
:100F58000001965100018D23000E00018E23000E22
:100F680000018F230001835100017E03F3CF95F028
:100F7800F4CF96F00001955100018C27000196519D
:100F880000018D23000E00018E23000E00018F2327
:100F98008EC08FF08DC08EF08CC08DF000018C6BF0
:100FA8000001825100017E03F3CF95F0F4CF96F053
:100FB8000001955100018C270001965100018D23F5
:100FC800000E00018E23000E00018F2300018451C2
:100FD80000017F03F3CF95F0F4CF96F0000195510F
:100FE800000191270001965100019223000E000193
:100FF8009323000E00019423000183510001800314
:10100800F3CF95F0F4CF96F00001955100019127A8
:101018000001965100019223000E00019323000E57
:10102800000194230001845100018003F3CF95F05F
:10103800F4CF96F0000195510001866F000196519A
:101048000001876F0001886B0001896B88C089F0F7
:1010580087C088F086C087F00001866B0001865142
:101068000001912700018751000192230001885156
:101078000001932300018951000194238CC086F05C
:101088008DC087F08EC088F08FC089F0190E06D009
:101098000001D8908933883387338633E82EF8D710
:1010A8000001865100019127000187510001922318
:1010B8000001885100019323000189510001942304
:1010C8008EC08FF08DC08EF08CC08DF000018C6BBF
:1010D80000018B5190C086F00001876B00018627C4
:1010E800000E8723820E000186250001956FFF0EF2
:1010F800000187210001966F15D00001D890913723
:1011080092379337943700018FAF02D00001918155
:101118000001D8908C378D378E378F3700019507AF
:10112800D8A09607000193AFE8D7000E00018B6F97
:1011380000018FAF24D0FF0E00018C150001866FCF
:10114800FF0E00018D150001876FFF0E00018E153F
:101158000001886F7F0E00018F150001896F000163
:101168008651000187110001881100018911D8A456
:1011780003D0000191A103D0010E00018B6F000183
:101188008B510001D8B423D0010E00019127000E25
:10119800922393239423000194A119D091C086F03F
:1011A80092C087F093C088F094C089F00001893517
:1011B800893388338733863386C091F087C092F0AD
:1011C80088C093F089C094F00001954B962B0001DC
:1011D80096BF10D00001965104E100019529D8A0CE
:1011E80009D0000E0001916F000E926F800E936F70
:1011F8007F0E2BD0000196BF07D00001965111E158
:1012080000019505D8B00DD0000E0001916F000EB9
:10121800926F000E936F000E946F000E00018A6F9C
:1012280015D095C090F0FF0E00019117FF0E921790
:101238007F0E9317000E9417000190A102D00001B1
:10124800938F0001D89090310001946F00018A516A
:101258000001941391C07EF092C07FF093C080F09B
:1012680094C081F0120000019F6F00019FAF25D14B
:1012780000019F6D00019F51800A120FD8A0AAD0CB
:10128800000E0001736F0A0E726F000E3F6E640E3F
:101298003E6E00019F513C6E3D6A3CBE3D0619EC16
:1012A80016F03CC070F03DC071F0CDEC14F00001B8
:1012B800D890703771370001D89070377137240E85
:1012C80000017027000E00017123EB0E000170254C
:1012D800F66E3E0E00017121F76E0900F5CF82F01F
:1012E8000900F5CF83F00900F5CF84F00A00F5CFA7
:1012F80085F0000E0001736F640E726F00019F513C
:101308000001706F716B70BF7107CDEC14F00001B4
:10131800D890703771370001D89070377137480E00
:1013280000017027000E00017123EB0E00017025EB
:10133800F66E3E0E00017121F76E0900F5CF7EF0C2
:101348000900F5CF7FF00900F5CF80F00A00F5CF4E
:1013580081F0E4EC06F07EC09BF07FC09CF080C07A
:101368009DF081C09EF09BC07EF09CC07FF09DC028
:1013780080F09EC081F0000E3F6E0A0E3E6E0001A6
:101388009F513C6E3D6A3CBE3D0619EC16F0D89064
:101398003C363D36D8903C363D36EB0E3C24F66E56
:1013A8003E0E3D20F76E0900F5CF82F00900F5CF1B
:1013B80083F00900F5CF84F00A00F5CF85F0E4EC5E
:1013C80006F07EC097F07FC098F080C099F081C089
:1013D8009AF0120000019F51800A750FD8A057D0CB
:1013E800000E0001736F0A0E726F00019F51000119
:1013F800706F716B70BF7107CDEC14F00001D8905D
:10140800703771370001D89070377137240E00019A
:101418007027000E00017123EB0E00017025F66E97
:101428003E0E00017121F76E0900F5CF7EF009002C
:10143800F5CF7FF00900F5CF80F00A00F5CF81F0F5
:10144800000E3F6E0A0E3E6E00019F513C6E3D6AD3
:101458003CBE3D0619EC16F0D8903C363D36D89087
:101468003C363D36EB0E3C24F66E3E0E3D20F76EC4
:101478000900F5CF82F00900F5CF83F00900F5CF18
:1014880084F00A00F5CF85F0E4EC06F09AD7000165
:101498009F51040DEB0EF324F66E3E0EF420F76E0A
:1014A8000900F5CF97F00900F5CF98F00900F5CFBE
:1014B80099F00A00F5CF9AF0120000019F51800AB6
:1014C800120FD8A0AAD0000E0001736F0A0E726F17
:1014D800000E3F6E640E3E6E00019F513C6E3D6AE9
:1014E8003CBE3D0619EC16F03CC070F03DC071F0F2
:1014F800CDEC14F00001D890703771370001D89006
:1015080070377137240E00017027000E0001712317
:101518001F0E00017025F66E3F0E00017121F76E57
:101528000900F5CF82F00900F5CF83F00900F5CF67
:1015380084F00A00F5CF85F0000E0001736F640E89
:10154800726F00019F510001706F716B70BF71075E
:10155800CDEC14F00001D890703771370001D890A5
:1015680070377137480E00017027000E0001712393
:101578001F0E00017025F66E3F0E00017121F76EF7
:101588000900F5CF7EF00900F5CF7FF00900F5CF0F
:1015980080F00A00F5CF81F0E4EC06F07EC09BF005
:1015A8007FC09CF080C09DF081C09EF09BC07EF003
:1015B8009CC07FF09DC080F09EC081F0000E3F6E01
:1015C8000A0E3E6E00019F513C6E3D6A3CBE3D06D0
:1015D80019EC16F0D8903C363D36D8903C363D365E
:1015E8001F0E3C24F66E3F0E3D20F76E0900F5CF26
:1015F80082F00900F5CF83F00900F5CF84F00A00E6
:10160800F5CF85F0E4EC06F07EC097F07FC098F047
:1016180080C099F081C09AF0120000019F51800AA1
:10162800750FD8A057D0000E0001736F0A0E726FA5
:1016380000019F510001706F716B70BF7107CDEC95
:1016480014F00001D890703771370001D8907037C6
:101658007137240E00017027000E000171231F0E40
:1016680000017025F66E3F0E00017121F76E09002A
:10167800F5CF7EF00900F5CF7FF00900F5CF80F0B7
:101688000A00F5CF81F0000E3F6E0A0E3E6E000193
:101698009F513C6E3D6A3CBE3D0619EC16F0D89051
:1016A8003C363D36D8903C363D361F0E3C24F66E0F
:1016B8003F0E3D20F76E0900F5CF82F00900F5CF07
:1016C80083F00900F5CF84F00A00F5CF85F0E4EC4B
:1016D80006F09AD700019F51040D1F0EF324F66EF1
:1016E8003F0EF420F76E0900F5CF97F00900F5CF0B
:1016F80098F00900F5CF99F00A00F5CF9AF012009A
:1017080066EC14F0AA0E0001E26F010E0001E36F0F
:10171800010E0001E46F010E0001E56F010E0001EA
:10172800E66F010E0001E76FAA0E0001E86F000ED8
:101738000001E96FCF0E1A6EF70E1B6E330E1C6E8A
:101748003F0E1D6E000E1E6E000E1F6E080E206EE0
:10175800420E216E81A602D043B609D0439681A6D7
:1017680006D043B402D0438401D04394438643B4A3
:101778008FD04382000E0E6E000E0D6E5A0E186E3C
:10178800000E146E51EC16F080D080EC17F0010EAC
:1017980081EC13F0BA0E00017A6F3F0E00017B6FE7
:1017A800DFEC17F0020E81EC13F0900E00017A6F57
:1017B8003F0E00017B6FDFEC17F0030E81EC13F096
:1017C8007B0E00017A6F3F0E00017B6FDFEC17F094
:1017D800040E81EC13F0BA0E00017A6F3F0E00017F
:1017E8007B6FDFEC17F001C019F102C01AF103C0DA
:1017F8001BF104C01CF10101191F1A1F1B1F1C1F1C
:10180800192B000E1A231B231C230950010119252B
:1018180001011D6F0A5001011A2101011E6F0B50B1
:1018280001011B2101011F6F0C5001011C21010145
:10183800206F0101205101011F1101011E1105E155
:10184800320E01011D5DD8A019D009C001F00AC0EF
:1018580002F00BC003F00CC004F083AE02D0010EFE
:1018680001D0000EFF0A0101196F01011933193364
:101878008350010119197F0B1919836E010E00019C
:10188800716F2C0E706F99EC17F043A47ED7839E6E
:1018980005EC17F080A403D0000E196E09D080B6AD
:1018A80004D0010E196E438203D0020E196E4392C2
:1018B8001950D8B474D01AC082F01BC083F01CC071
:1018C80084F01DC085F022C019F101011A6B19BFFF
:1018D8001A07800E01011927000E1A2319C170F08A
:1018E8001AC171F00001000E71BFFF0E726F736FA5
:1018F800010EACEC0EF070C07EF071C07FF072C0CB
:1019080080F073C081F0E4EC06F07EC0A0F07FC0E8
:10191800A1F080C0A2F081C0A3F0FBEC12F000019E
:10192800A051186E2350800A7F0FD8A02ED01EC059
:1019380082F01FC083F020C084F021C085F02350BE
:101948000001706F000E70BFFF0E716F726F736FC2
:10195800010EACEC0EF070C07EF071C07FF072C06A
:1019680080F073C081F0E4EC06F07EC0A0F07FC088
:10197800A1F080C0A2F081C0A3F0FBEC12F0A0C0DF
:101988000DF0A1C00EF0000E08D0000E0E6E000E75
:101998000D6E2350020DF3280008146E05D0000EBA
:1019A8000E6E000E0D6E146805C019F106C01AF10E
:1019B80007C01BF108C01CF10101191F1A1F1B1FCA
:1019C8001C1F192B000E1A231B231C23095001016D
:1019D800192501011D6F0A5001011A2101011E6F0D
:1019E8000B5001011B2101011F6F0C5001011C212B
:1019F8000101206F0101205101011F1101011E1178
:101A080005E10A0E01011D5DD8A00AD009C005F044
:101A18000AC006F00BC007F00CC008F051EC16F035
:101A2800D4C019F1D5C01AF1D6C01BF1D7C01CF12A
:101A38000101191F1A1F1B1F1C1F192B000E1A2327
:101A48001B231C2309500101192501011D6F0A5090
:101A580001011A2101011E6F0B5001011B21010117
:101A68001F6F0C5001011C210101206F0101205141
:101A780001011F1101011E1105E1320E01011D5D59
:101A8800D8A068D609C0D4F00AC0D5F00BC0D6F0EB
:101A98000CC0D7F070EC12F05DD60001A36F6D0E8C
:101AA8000001A365BCD0000E0001736F0A0E726FAF
:101AB800000E3F6E640E3E6EA3C03CF03D6A19EC0A
:101AC80016F03CC070F03DC071F0CDEC14F0000190
:101AD800D890703771370001D89070377137240E5D
:101AE80000017027000E00017123EB0E0001702524
:101AF800F66E3E0E00017121F76E0900F5CF82F0F7
:101B08000900F5CF83F00900F5CF84F00A00F5CF7E
:101B180085F0000E0001736F640E726FA3C070F041
:101B28000001716BCDEC14F00001D890703771375B
:101B38000001D89070377137480E00017027000EE9
:101B480000017123EB0E00017025F66E3E0E0001B8
:101B58007121F76E0900F5CF7EF00900F5CF7FF00F
:101B68000900F5CF80F00A00F5CF81F0E4EC06F02B
:101B78007EC09FF07FC0A0F080C0A1F081C0A2F01D
:101B8800000E3F6E0A0E3E6EA3C03CF03D6A19EC93
:101B980016F0D8903C363D36D8903C363D36EB0EA4
:101BA8003C24F66E3E0E3D20F76E0900F5CF82F01C
:101BB8000900F5CF83F00900F5CF84F00A00F5CFCE
:101BC80085F09FC07EF0A0C07FF0A1C080F0A2C0C9
:101BD80081F0E4EC06F07EC09BF07FC09CF080C0F2
:101BE8009DF081C09EF09BC07EF09CC07FF09DC0A0
:101BF80080F09EC081F0000E0001826F000E836F9E
:101C0800000E846F3F0E856FE4EC06F07EC097F0FF
:101C18007FC098F080C099F081C09AF012000A0E37
:101C28000001A3656CD0000E3F6E0A0E3E6EA3C085
:101C38003CF03D6A19EC16F0D8903C363D36D89009
:101C48003C363D36EB0E3C24F66E3E0E3D20F76EDC
:101C58000900F5CF82F00900F5CF83F00900F5CF30
:101C680084F00A00F5CF85F0000E0001736F0A0EAC
:101C7800726FA3C070F00001716BCDEC14F000011D
:101C8800D890703771370001D89070377137240EAB
:101C980000017027000E00017123EB0E0001702572
:101CA800F66E3E0E00017121F76E0900F5CF7EF049
:101CB8000900F5CF7FF00900F5CF80F00A00F5CFD5
:101CC80081F0E4EC06F07EC09FF07FC0A0F080C0F9
:101CD800A1F081C0A2F09FC07EF0A0C07FF0A1C09B
:101CE80080F0A2C081F0000E0001826F000E836FA9
:101CF800000E846F3F0E856FE4EC06F087D7000175
:101D0800A351040DEB0EF324F66E3E0EF420F76E8D
:101D18000900F5CF7EF00900F5CF7FF00900F5CF77
:101D280080F00A00F5CF81F0000E0001826F000EEE
:101D3800836F000E846F3F0E856FE4EC06F07EC063
:101D480097F07FC098F080C099F081C09AF0120097
:101D58000001786F000178510001D8B41ED000014D
:101D680073AF1BD070C074F071C075F072C076F09C
:101D780073C077F00001741F751F761F771F742BCF
:101D8800000E75237623772374C07AF075C07BF034
:101D980076C07CF077C07DF008D070C07AF071C052
:101DA8007BF072C07CF073C07DF0000170510001BF
:101DB80071110001721100017311D8A40AD0000E2C
:101DC8000001706F000E716F000E726F000E736F5E
:101DD8001200960E0001796F08D00001792B0001DE
:101DE800D8907D337C337B337A33000E00017A152B
:101DF8000001746F000E00017B150001756F000E65
:101E080000017C150001766FFE0E00017D150001B2
:101E1800776F0001745100017511000176110001FE
:101E28007711D8B410D0D9D70001792B010E000151
:101E38007A27000E7B237C237D230001D8907D33F5
:101E48007C337B337A33000E00017A150001746FFE
:101E5800000E00017B150001756F000E00017C1556
:101E68000001766FFF0E00017D150001776F0001FC
:101E78007451000175110001761100017711D8B471
:101E880009D0D2D7000179070001D8907A377B377B
:101E98007C377D3700017CBF04D0020E00017961D8
:101EA800F1D7000179B109D0FF0E00017A17FF0EB2
:101EB8007B177F0E7C17FF0E7D170001D8907933B2
:101EC80079C074F00001756B766B776B74C077F02E
:101ED8000001766B756B746B0001745100017A1305
:101EE8000001755100017B130001765100017C133C
:101EF8000001775100017D13000178510001D8B429
:101F080005D0000173AF02D000017D8F7AC070F058
:101F18007BC071F07CC072F07DC073F0120072C09B
:101F28003CF03D6A3E6A000171353C3601E33D8074
:101F38003C5000017D6F00017D51D8A40AD0000EED
:101F48000001706F000E716F000E726F000E736FDC
:101F5800120076C03CF03D6A3E6A000175353C3699
:101F680001E33D803C5000017C6F00017C51D8A406
:101F78000AD0000E0001706F000E716F000E726FB4
:101F8800000E736F12000001718FFF0E00017017B1
:101F9800FF0E00017117000E000172170001758F06
:101FA800FF0E00017417FF0E00017517000E0001E7
:101FB8007617000E0001786F000E796F000E7A6FA9
:101FC800000E7B6F7F0E00017D5F00017C51980F32
:101FD80000017D5F180E00017C6F0001D8907837F2
:101FE80079377A377B37000174510001705D000141
:101FF8007551000171590001765100017259D8A03C
:102008000ED0000174510001705F0001755100018C
:10201800715B000176510001725B0001788100015B
:10202800D89070377137723700017C2FD6D70001EE
:102038007DAF1AD000017D51800A970FD8B00AD021
:10204800000E0001706F000E716F000E726F000EAF
:10205800736F12000001D8907B337A337933783369
:1020680000017D3FF7D71BD0170E00017D6512D008
:10207800000E0001706F000E716F000E726F000E7F
:10208800736F12000001D890783779377A377B3729
:1020980000017D0700017D510001D8A4F3D778C065
:1020A80070F079C071F07AC072F07BC073F01200E2
:1020B8000001776F0001775183EC18F08D948B92B3
:1020C8008B90000E0001716F640E706F99EC17F021
:1020D800000E0001726F010E0001736F010E000106
:1020E800746F000E4CEC17F0000E0001716F640E57
:1020F800706F99EC17F0000E0001726F010E00016D
:10210800736F010E0001746F000E4CEC17F0000E97
:102118000001716F0A0E706F99EC17F0000E000144
:10212800726F010E0001736F010E0001746F000ED3
:102138004CEC17F0000E0001726F010E0001736F76
:10214800000E0001746F000E4CEC17F0000E000139
:10215800726F010E0001736F000E0001746F000EA4
:102168004CEC17F0000E0001726F000E0001736F47
:10217800000E0001746F010E4CEC17F0000E000108
:10218800726F000E0001736F000E0001746F000E75
:102198004CEC17F0000E0001726F000E0001736F17
:1021A800000E0001746F010E4CEC17F0000E0001D8
:1021B800726F000E0001736F000E0001746F000E45
:1021C8004CEC17F0000E0001726F000E0001736FE7
:1021D800010E0001746F000E4CEC17F0000E0001A8
:1021E800726F000E0001736F000E0001746F000E15
:1021F8004CEC17F0010E0001726F010E0001736FB5
:10220800000E0001746F000E4CEC17F080EC17F014
:10221800000E0001756F000E67EC17F01200000148
:1022280072357335416E4150D8A40AD0000E0001B2
:10223800706F000E716F000E726F000E736F1200D8
:10224800000176357735406E4050D8A40AD0000E8C
:102258000001706F000E716F000E726F000E736FC9
:1022680012000001728FFF0E00017017FF0E711728
:10227800FF0E7217000E73170001768FFF0E000114
:102288007417FF0E7517FF0E7617000E7717000EDE
:102298003C6E000E3D6E000E3E6E000E3F6E7F0ED1
:1022A800415E4050A00F415E200E406ED8903C36F3
:1022B8003D363E363F36000174510001705D000125
:1022C80075510001715900017651000172590001E0
:1022D800775100017359D8A011D000017451000141
:1022E800705F000175510001715B000176510001BA
:1022F800725B000177510001735B3C800001D8904C
:102308007037713772377337402ED0D741AE17D038
:102318004150800A9F0FD8B00AD0000E0001706F9C
:10232800000E716F000E726F000E736F1200D8905E
:102338003F323E323D323C32413EF9D716D01F0E75
:10234800416410D0000E0001706F000E716F000E16
:10235800726F000E736F1200D8903C363D363E36D1
:102368003F3641064150D8A4F7D73CC070F03DC075
:1023780071F03EC072F03FC073F01200000E000111
:1023880070153C6E000E000171153D6E800E000147
:1023980072153E6E7F0E000173153F6E3C503D1066
:1023A8003E103F10D8A409D0000E0001706F000E37
:1023B800716F000E726F000E736F000E00017415BE
:1023C8003C6E000E000175153D6E800E00017615FD
:1023D8003E6E7F0E000177153F6E3C503D103E105B
:1023E8003F10D8A409D0000E0001746F000E756F5D
:1023F800000E766F000E776F000173AF21D070C0AA
:102408003CF071C03DF072C03EF073C03FF03C1E1E
:102418003D1E3E1E3F1E3C2A000E3D223E223F220C
:10242800000E3C240001706F000E3D200001716F0A
:10243800000E3E200001726F800E3F200001736F76
:10244800000177AF21D074C03CF075C03DF076C074
:102458003EF077C03FF03C1E3D1E3E1E3F1E3C2A0C
:10246800000E3D223E223F22000E3C240001746FE4
:10247800000E3D200001756F000E3E200001766FB2
:10248800800E3F200001776F000E0001701B000EC8
:10249800711B000E721B800E731B000E0001741B53
:1024A800000E751B000E761B800E771B0001745101
:1024B8000001705D000175510001715900017651EC
:1024C800000172590001775100017359D8B002D048
:1024D800D8901200D8801200010E3F6E160E3E6E84
:1024E800D8C03CF0D9C03DF0B8EC16F03CC070F054
:1024F8003DC071F00001726B736B000EACEC0EF016
:1025080070C0D0F071C0D1F072C0D2F073C0D3F0F7
:1025180080EC17F0010E81EC13F0A50E00017A6F24
:102528003F0E00017B6FDFEC17F0020E81EC13F019
:10253800CF0E00017A6F3F0E00017B6FDFEC17F0C2
:102548001950D8B414D043A209D0F90E00017A6FFB
:102558003F0E00017B6FDFEC17F011D0EF0E00018A
:102568007A6F3F0E00017B6FDFEC17F008D0FD0E8D
:1025780000017A6F3F0E00017B6FDFEC17F0030E4E
:1025880081EC13F0210E0001C06F010E0001C16F34
:10259800DB0E0001C26F3F0E0001C36FD0C0C4F054
:1025A800D1C0C5F0D2C0C6F0D3C0C7F062EC00F00D
:1025B800000E01012C6F210E00017A6F010E00013F
:1025C8007B6F1EEC18F0F40E00017A6F3F0E0001CD
:1025D8007B6FDFEC17F0040E81EC13F0BA0E0001EC
:1025E8007A6F3F0E00017B6FDFEC17F012000001DD
:1025F800A235A3350001A96F0001A951D8A40AD0BA
:10260800000E0001A06F000EA16F000EA26F000E59
:10261800A36F1200A0C0A4F0A1C0A5F0A2C0A6F0AC
:10262800A3C0A7F0200E06D00001D890A733A63388
:10263800A533A433E82EF8D70001A4510001A86FF0
:102648000001A28FFF0E0001A017FF0EA117FF0EB9
:10265800A217000EA317960E0001A95F0001A9AFEB
:102668001AD00001A951800A970FD8B00AD0000EDD
:102678000001A06F000EA16F000EA26F000EA36FE5
:1026880012000001D890A333A233A133A033000174
:10269800A93FF7D71BD01F0E0001A96512D0000E65
:1026A8000001A06F000EA16F000EA26F000EA36FB5
:1026B80012000001D890A037A137A237A337000134
:1026C800A9070001A9510001D8A4F3D70001A85116
:1026D8000001D8B409D00001A31FA21FA11FA06D3B
:1026E800000EA123A223A323A0C0A0F0A1C0A1F0A3
:1026F800A2C0A2F0A3C0A3F012000001756F64D0BD
:10270800000E0001726F000E0001736F000E0001D1
:10271800746F010E4CEC17F0000E0001726F000E82
:102728000001736F000E0001746F000E4CEC17F07F
:102738001200010E0001726F000E0001736F000E8F
:102748000001746F010E4CEC17F0000E0001726F5F
:10275800000E0001736F000E0001746F000E4CEC48
:1027680017F01200000E0001726F000E0001736F67
:10277800010E0001746F010E4CEC17F0010E000100
:10278800726F000E0001736F000E0001746F000E6F
:102798004CEC17F01200010E0001726F000E0001E0
:1027A800736F010E0001746F010E4CEC17F0010EEF
:1027B8000001726F000E0001736F000E0001746F4C
:1027C800000E4CEC17F0120000017551010AD8B444
:1027D80097D7030AD8B4ADD7010AD8B4C3D7070A24
:1027E800D8A41200D8D70600E9CF64F0EACF65F084
:1027F800E1CF66F0E2CF67F0D9CF68F0DACF69F0C1
:10280800F3CF6AF0F4CF6BF0F6CF6CF0F7CF6DF042
:10281800F8CF6EF0F5CF6FF09EAA36D0DA0E366E8E
:10282800000E376E070E386EF5EC17F0AA0E000191
:10283800DA19D8A428D0AA0E0001E019D8A423D008
:102848000001DBA102D0438001D04390DCC013F02B
:10285800DDC012F0DEC010F0DFC00FF0010E3B6EDD
:1028680013500001616F606B00016051000161113C
:10287800D8A405D01250D8A402D0000E3B6E3BC09D
:10288800D8F00001D96B9E9A6FC0F5FF6EC0F8FFB3
:102898006DC0F7FF6CC0F6FF6BC0F4FF6AC0F3FFB2
:1028A80069C0DAFF68C0D9FF67C0E2FF66C0E1FF10
:1028B80065C0EAFF64C0E9FF63C0FBFF62C0FAFFBE
:1028C80047921100000E896E0F0E926E000E8A6EEE
:1028D8009368000E8B6EB00E946E000E8C6E000E18
:1028E800956E000E8D6E000E966E9E9AA192D08EF9
:1028F8009F8AA2924F0EAB16AC9ACF0E9D16000E71
:102908000001716F0A0E706F99EC17F0000E3D6EA2
:10291800670E3C6E7C0E88EC16F00D0EC16EC298E8
:10292800C296C294C08AC088C096C084C092C08033
:10293800C09EC2808384000E0001716F0A0E706F02
:1029480099EC17F08386010EC9EC17F0100E5CECB9
:1029580010F0000E7CEC18F080EC17F0010E81EC02
:1029680013F0E70E00017A6F3F0E00017B6FDFEC7A
:1029780017F083948396630EB36EC00EB26E9D8A71
:10298800A082F28EF28CAB8E010EB16E80EC17F045
:102998001200000E0001756F000173AF08D000012E
:1029A800726D731FD8B0732B010E0001756F000193
:1029B80071AF08D00001706D711FD8B0712B010E76
:1029C8000001751B000E0001776F000E766F000185
:1029D800725100017311D8B42CD0010E0001746F2C
:1029E80006D00001D890723773370001742B0001AC
:1029F80073AFF7D70001D890763777370001725157
:102A08000001705D0001735100017159D8A00AD00E
:102A1800000172510001705F000173510001715B88
:102A2800000176810001D890733372330001742F4E
:102A3800E1D7000175510001D8B405D00001766DC9
:102A4800771FD8B0772B76C070F077C071F012007E
:102A5800000E3C6E000E3D6E000E3E6E000E3F6E88
:102A68000001745100017511000176110001771100
:102A7800D8B43DD0010E406E07D00001D89074370D
:102A8800753776377737402A000177AFF6D7D89071
:102A98003C363D363E363F36000174510001705DCC
:102AA80000017551000171590001765100017259F8
:102AB8000001775100017359D8A011D00001745159
:102AC8000001705F000175510001715B00017651D2
:102AD8000001725B000177510001735B3C800001CB
:102AE800D8907733763375337433402ED0D73CC0C3
:102AF80070F03DC071F03EC072F03FC073F012003C
:102B08000001796F8D8400017945010B0001756F13
:102B180000017945E846030B010B0001766F0001BF
:102B28007939E842070B010B0001776F0001793909
:102B38000F0B010B0001786F76C072F077C073F04D
:102B480078C074F0000175514CEC17F00001793928
:102B5800E8461F0B010B0001756F00017941E8423F
:102B68003F0B010B0001766F0001D8907931010B02
:102B78000001776F00017951010B0001786F76C071
:102B880072F077C073F078C074F0000175514CECA6
:102B980017F08D94120000017451000175110001A5
:102BA800761100017711D8B437D0010E3C6E07D0EA
:102BB8000001D89074377537763777373C2A00018B
:102BC80077AFF6D7000174510001705D00017551AF
:102BD80000017159000176510001725900017751C5
:102BE80000017359D8A010D0000174510001705F22
:102BF800000175510001715B000176510001725BA3
:102C0800000177510001735B0001D8907733763368
:102C1800753374333C2ED6D770C070F071C071F024
:102C280072C072F073C073F01200000E416E3DAEB8
:102C380006D03C6C3D1ED8B03D2A010E416E3FAE19
:102C480004D03E6C3F1ED8B03F2A3E503F10D8B447
:102C580018D0010E406E04D0D8903E363F36402A38
:102C68003FAEFAD73E503C5C3F503D58D8A004D008
:102C78003E503C5E3F503D5AD8903F323E32402E47
:102C8800F1D74150D8B404D03C6C3D1ED8B03D2A91
:102C98003CC03CF03DC03DF012000E50176E0DC018
:102CA80016F0000E43B2010E0001E36F17C0E4F006
:102CB80016C0E5F018C0E6F014C0E7F0000E3F6E4D
:102CC800050E3F6401D017D03F50010DE20EF324EA
:102CD800D96E000EF420DA6EDF50D8A40AD03F5027
:102CE800010DE20EF324D96E000EF420DA6E010E07
:102CF800DF6E3F2AE5D7ACA21200E20E3D6E000E51
:102D08003E6E0BEC18F012003E6E000EAC6E000E1C
:102D1800AB6E3EB0AC883EA202D0AC8CAB8C3EB45D
:102D2800AC8E3EA602D0AB8801D0AB8A3EB8AC844C
:102D38009E983EBAAB863EAC02D09D8A01D09D9A41
:102D48009E9A3EAE02D09D8801D09D983CC0AFFFB0
:102D58003D50B06EAC8AAB8E949C948EACA8120099
:102D6800ACBE1200948C1200000E416E000E406E34
:102D78003E503F10D8B41CD0010E426E04D0D890FB
:102D88003E363F36422A3FAEFAD7D89040364136D3
:102D98003E503C5C3F503D58D8A005D03E503C5E6C
:102DA8003F503D5A4080D8903F323E32422EEDD7B8
:102DB80040C03CF041C03DF01200000E0001BC1BB9
:102DC800000EBD1B000EBE1B800EBF1BB8C0A4F0BA
:102DD800B9C0A5F0BAC0A6F0BBC0A7F0BCC0A8F0A7
:102DE800BDC0A9F0BEC0AAF0BFC0ABF090EC04F023
:102DF800A4C0B8F0A5C0B9F0A6C0BAF0A7C0BBF08F
:102E08001200000E156E010E156401D01200C28268
:102E1800C2B2FED71550010D220EF324D96E000E52
:102E2800F420DA6EC450800FDF6EC2A402D0010E07
:102E380001D0000EFF0A3C6E3C463C46C2503C188E
:102E4800FB0B3C18C26E152ADED701EE21F00C0EE2
:102E5800EE6AE806FDE100EECAF0200EEE6AE8062A
:102E6800FDE1436A00EE01F0230EEE6AE806FDE19B
:102E78000E0EF66E310EF76E000EF86E0900F5CFE5
:102E880046F047904792000EF86E000184EF0BF071
:102E9800426E000174B102D08B9401D08B84000182
:102EA80073B102D08B9601D08B86000172B102D02B
:102EB8008C9001D08C8042B002D08C9201D08C8250
:102EC80044EC18F012000001766F000E0001726FDA
:102ED800000E0001736F000E0001746F000E4CECC1
:102EE80017F0010E0001726F76C073F075C074F0B0
:102EF800010E4CEC17F01200000E0001726F000E6C
:102F08000001736F000E0001746F000E4CEC17F097
:102F1800000E0001726F000E0001736F010E0001B8
:102F2800746F000E4CEC17F0120046C03CF03D6A7E
:102F380070C03EF071C03FF031EC18F03CC044F076
:102F48003DC045F006D0500EE82EFED74406D8A066
:102F5800450644504510D8B41200F5D73C503D10F2
:102F68003E103F10D8B408D0000E3C1A000E3D1A8F
:102F7800000E3E1A800E3F1A3CC03CF03DC03DF0AA
:102F88003EC03EF03FC03FF012000001726F000EDD
:102F98000001736F09D0030E0001716FE80E706FA6
:102FA80099EC17F00001732B000172510001735D59
:102FB800D8B01200F0D70BD07AC0F6FF7BC0F7FF6D
:102FC8000800F55084EC15F000017A4B7B2B7AC091
:102FD800F6FF7BC0F7FF0800F5500009D8B41200CF
:102FE800EBD7000E3A6E0ED09EAAFED764EC18F00E
:102FF800396E36C0D9FF37C0DAFF39C0DFFF364A2D
:10300800372A3A2A38503A5CD8B01200EDD7ACA229
:10301800FED73DC0D9FF3EC0DAFFDF5073EC18F091
:103028003DC0D9FF3EC0DAFF3D4A3E2ADF50D8B442
:103038001200EDD70AD07AC0D9FF7BC0DAFFDF5083
:1030480084EC15F000017A4B7B2B7AC0D9FF7BC04A
:10305800DAFFDF50D8B41200EED73C503E02F3CF6F
:1030680040F0F4CF41F03C503F02F35041263D5030
:103078003E02F350412640C03CF041C03DF01200F2
:103088008B82000E0001716F010E706F99EC17F0C2
:103098008B92000E0001716F010E706F99EC17F0A2
:1030A80012003E6E000E3D6E3A0E3E6005D02F0EA9
:1030B8003E6402D0010E3D6E3DC03CF03C30120033
:1030C800F20E1116ABAC03D01190ABB01180ABB4BB
:1030D8001184ABB21186AECF35F0355012003C6E7C
:1030E800ACAC03D0AC9011B2AC803CC0ADFF1200C8
:1030F8003C6E3CB002D08B9801D08B8812003C6E9D
:083108003CC046F0120010006B
:103EEA00000000803FCDCCCC3D0AD7233C6F128323
:103EFA003A17B7D138ACC52737BD37863595BFD6FF
:103F0A003377CC2B325F708930FFE6DB2E08E53C35
:103F1A001E6042A20D0000803F000020410000C840
:103F2A004200007A4400401C460050C347002474F3
:103F3A00498096184B20BCBE4C286B6E4EF9021570
:103F4A0050EC78AD60CAF24971010000000A000025
:103F5A000064000000E803000010270000A08601AA
:103F6A000040420F008096980000E1F50500CA9AC9
:103F7A003B5475726E207468652073776974636840
:103F8A00204F4E2120003D3D3E2056454849434C96
:103F9A004520204F4646203C3D3D003D3D3D2056B4
:103FAA00454849434C452044415441203D3D3D004C
:103FBA003D3D3D3D3D3D3D3D3D3D3D3D3D3D3D3D27
:103FCA003D3D3D3D00446972656374696F6E3A20F8
:103FDA000053706565643A20252E3366005761697F
:103FEA00742E2E2E00424B5744004B6D2F6800460C
:063FFA00574400500000D6
:020000040020DA
:08000000FFFFFFFFFFFFFFFF00
:020000040030CA
:0E000000FF021F1EFF8281FF0FC00FE00F40A6
:00000001FF
