:0400000060EF00F0BD
:0E0008004682FACF15F0FBCF16F078ED18F017
:100018004680D8CF01F0E8CF02F0E0CF03F0FACF66
:1000280004F0FBCF05F0E9CF06F0EACF07F0E1CF07
:1000380008F0E2CF09F0D9CF0AF0DACF0BF0F3CF0E
:100048000CF0F4CF0DF0F6CF0EF0F7CF0FF0F8CF9D
:1000580010F0F5CF11F0A1A20BD0010E2F26000E43
:10006800302231223222630EB36EC00EB26EA192DC
:1000780011C0F5FF10C0F8FF0FC0F7FF0EC0F6FF64
:100088000DC0F4FF0CC0F3FF0BC0DAFF0AC0D9FFA4
:1000980009C0E2FF08C0E1FF07C0EAFF06C0E9FFA8
:1000A80005C0FBFF04C0FAFF03C0E0FF02C0E8FF81
:1000B80001C0D8FF46901000FBEF18F0BB0E0101FD
:1000C800046F000E0101056F80EF04F0250E010199
:1000D8001819D8B408D0B7C0D9FFB8C0DAFF18C10A
:1000E800DFFF7DEF04F0000E0101076F000E066FC1
:1000F800B9C0F6FFBAC0F7FF0800F5502E0AD8A419
:1001080039D00101078D0001B94BBA2B000E01014E
:10011800136F000E126F23D012C160F013C161F08B
:10012800000E0001636F0A0E626F74EC19F0B9C01B
:10013800F6FFBAC0F7FF0800F55000016027000E6F
:1001480000016123D00E000160250101126FFF0E2E
:10015800000161210101136F0001B94BBA2BB9C02D
:10016800F6FFBAC0F7FF0800F550EDEC19F0D8A07B
:100178000CD0D2D7000E0101136F000E126F0101CF
:10018800078903D00101078513D0B9C0F6FFBAC0AB
:10019800F7FF0001B94BBA2B0800F5CF18F10101A0
:1001A8001851000AD8B4B7D3660AD8B4EBD7A4D389
:1001B800070E01010715D8B447D3010107A905D0D7
:1001C800000E0101136F060E126F04C1D9FF05C19D
:1001D800DAFFDECF14F1DECF15F1DECF16F1DECF78
:1001E80017F1040E01010427000E0523010117AFC2
:1001F80015D014C160F015C161F016C162F017C1C5
:1002080063F058EC19F060C014F161C015F162C0D8
:1002180016F163C017F1030E01010613000E010168
:100228000D6F000E0C6F0101145101011511010130
:10023800161101011711D8B48ED0010116351735E2
:10024800820F01010C6F01010D6BFF0E0D230101DF
:100258000C07D8A00D070CC160F00DC161F0000EAD
:100268000001636F030E626F74EC19F060C00CF14B
:1002780061C00DF10CC166F00DC167F0000E000100
:10028800696F0A0E686FBCEC15F066C00CF167C0A8
:100298000DF101010DAF04D001010C07D8A00D0725
:1002A80001010C51000896EC04F08EC00EF18FC0CD
:1002B8000FF190C010F191C011F10EC175F00FC18E
:1002C80076F010C177F011C178F014C179F015C13A
:1002D8007AF016C17BF017C17CF053EC09F075C0B9
:1002E8000EF176C00FF177C010F178C011F10EC190
:1002F80060F00FC161F010C162F011C163F0000E2F
:100308000001646F000E656F800E666F3F0E676FA9
:10031800C2EC10F00001D8B005D001010C07D8A03C
:100328000D0719D00EC160F00FC161F010C162F065
:1003380011C163F0000E0001646F000E656F200E9E
:10034800666F410E676FC2EC10F00001D8A003D0B1
:1003580001010C4B0D2B010113BF08D001011351F2
:1003680023E10D0E0101125DD8B01ED014C19BF01F
:1003780015C19CF016C19DF017C19EF001011251E4
:10038800A3EC0DF08EC09FF08FC0A0F090C0A1F03C
:1003980091C0A2F0FFEC06F09BC014F19CC015F1CF
:1003A8009DC016F19EC017F101010DBF08D00101D3
:1003B8000D512EE10A0E01010C5DD8B029D00101C2
:1003C8001451010115110101161101011711D8B4B9
:1003D8006DD014C197F015C198F016C199F017C1E6
:1003E8009AF04EEC14F000019751000198110001A9
:1003F800991100019A11D8A459D001010DBF56D006
:1004080001010D5105E1020E01010C5DD8A04ED08D
:100418000EC160F00FC161F010C162F011C163F04C
:100428005F0E0001646F700E656F890E666F400E77
:10043800676FC2EC10F00001D8B003D00101F70ECD
:1004480002D00101F80E0C27FF0E0D2301010C51FB
:1004580096EC04F08EC00EF18FC00FF190C010F131
:1004680091C011F114C160F015C161F016C162F0BC
:1004780017C163F00EC164F00FC165F010C166F0DA
:1004880011C167F08AEC11F060C008F161C009F190
:1004980062C00AF163C00BF1000E0101146F000E77
:1004A800156F000E166F000E176F3CD014C197F031
:1004B80015C198F016C199F017C19AF04EEC14F0D6
:1004C80097C008F198C009F199C00AF19AC00BF1D8
:1004D80014C1AFF015C1B0F016C1B1F017C1B2F038
:1004E80008C167F009C168F00AC169F00BC16AF078
:1004F800000E0CEC0FF067C0B3F068C0B4F069C030
:10050800B5F06AC0B6F0D7EC18F0AFC014F1B0C0BF
:1005180015F1B1C016F1B2C017F1000E01010D6F4F
:10052800000E0C6F010E0101186F0A0E0101181957
:10053800D8B41ED001011851040D530EF324F66EE1
:100548003F0EF420F76E0900F5500101085D09001F
:10055800F550010109590900F55001010A5909002E
:10056800F55001010B59D8A003D00101182BDDD794
:10057800030E010106150001BF6F000E01010715EA
:100588000001C06F0001BF510001C011D8B455D09F
:10059800B7C0D9FFB8C0DAFF2D0E4DD00001B74B58
:1005A800B82B4BD008C160F009C161F00AC162F0F4
:1005B8000BC163F001011851040D530EF324F66EBC
:1005C8003F0EF420F76E0900F5CF64F00900F5CF6F
:1005D80065F00900F5CF66F00A00F5CF67F01BEC6F
:1005E80016F060C00EF161C00FF162C010F163C077
:1005F80011F10EC160F00FC161F010C162F011C1BC
:1006080063F00A0E0001646F000E656F000E666FDE
:10061800000E676F1EEC17F060C00EF161C00FF19D
:1006280062C010F163C011F101010E51300FB7C063
:10063800D9FFB8C0DAFFDF6EB1D701011807010191
:100648001829D8B40ED0AED7B7C0D9FFB8C0DAFFD2
:10065800300EDF6E0001B74BB82B01010C07D8A094
:100668000D0701010DBF07D001010D51EDE1010199
:100678000C05D8B0E9D7010113BF0CD00101135103
:1006880005E1090E0101125DD8A004D0080E010190
:10069800186F02D012C118F1010118510101125F3F
:1006A800000E010118BFFF0E0101135B0101185173
:1006B8000101D8B409D0B7C0D9FFB8C0DAFF2E0EEF
:1006C800DF6E0001B74BB82B0101185196EC04F00E
:1006D8008EC000F18FC001F190C002F191C003F10A
:1006E80014C179F015C17AF016C17BF017C17CF0FE
:1006F80000C175F001C176F002C177F003C178F04E
:1007080053EC09F075C097F076C098F077C099F06F
:1007180078C09AF04EEC14F097C008F198C009F12F
:1007280099C00AF19AC00BF174D008C160F009C1F0
:1007380061F00AC162F00BC163F001011851040DA8
:10074800530EF324F66E3F0EF420F76E0900F5CF32
:1007580064F00900F5CF65F00900F5CF66F00A00EE
:10076800F5CF67F01BEC16F060C00EF161C00FF119
:1007780062C010F163C011F10EC160F00FC161F0E9
:1007880010C162F011C163F00A0E0001646F000E1F
:10079800656F000E666F000E676F1EEC17F060C085
:1007A8000EF161C00FF162C010F163C011F10101D7
:1007B8000E51300FB7C0D9FFB8C0DAFFDF6E0001A5
:1007C800B74BB82B08C160F009C161F00AC162F0EB
:1007D8000BC163F001011851040D530EF324F66E9A
:1007E8003F0EF420F76E0900F5CF64F00900F5CF4D
:1007F80065F00900F5CF66F00A00F5CF67F01EEC4A
:1008080017F060C008F161C009F162C00AF163C065
:100818000BF10101180701011829D8B40ED085D7AA
:10082800B7C0D9FFB8C0DAFF300EDF6E0001B74B92
:10083800B82B01011207D8A01307010112510101B9
:100848001311D8B459D0ECD7010112510101131179
:10085800D8A40DD0010108510101091101010A11A3
:1008680001010B11D8A403D00101124B132B800EE8
:10087800010118BF7F0E0001BF6F01011251010174
:10088800185D01011351800A0001BF59D8B003D087
:1008980012C118F118D001011351800A0001BF6F6D
:1008A800010118510101125D800E010118BF7F0E70
:1008B8000001BF59D8B007D0010118510101126FCA
:1008C800136B12BF1307030E010106150001BF6F5A
:1008D800000E010107150001C06F0001BF510001A2
:1008E800C011D8B409D0B7C0D9FFB8C0DAFF2D0EEF
:1008F800DF6E0001B74BB82BB9C0F6FFBAC0F7FFDF
:100908000001B94BBA2B0800F5CF18F101011851B5
:10091800D8A46AEF00F0B7C0D9FFB8C0DAFF000E5C
:10092800DF6E12000001966F000196AF33D100010F
:10093800966D00019651800A120FD8A0B2D0000E11
:100948000001696F0A0E686F000E0001636F640E84
:10095800626F000196510001606F616B60BF6107B3
:10096800CDEC16F060C066F061C067F0BCEC15F025
:100978000001D890663767370001D8906637673727
:10098800240E00016627000E00016723EB0E00010C
:100998006625F66E3E0E00016721F76E0900F5CF59
:1009A80079F00900F5CF7AF00900F5CF7BF00A005D
:1009B800F5CF7CF0000E0001696F640E686F0001CE
:1009C80096510001666F676B66BF6707BCEC15F050
:1009D8000001D890663767370001D89066376737C7
:1009E800480E00016627000E00016723EB0E000188
:1009F8006625F66E3E0E00016721F76E0900F5CFF9
:100A080075F00900F5CF76F00900F5CF77F00A0008
:100A1800F5CF78F053EC09F075C092F076C093F0FA
:100A280077C094F078C095F092C075F093C076F0D6
:100A380094C077F095C078F0000E0001636F0A0E3D
:100A4800626F000196510001606F616B60BF6107C2
:100A5800CDEC16F00001D890603761370001D890CE
:100A680060376137EB0E00016025F66E3E0E00011F
:100A78006121F76E0900F5CF79F00900F5CF7AF01A
:100A88000900F5CF7BF00A00F5CF7CF053EC09F0B4
:100A980075C08EF076C08FF077C090F078C091F076
:100AA800120000019651800A750FD8A05DD0000E83
:100AB8000001696F0A0E686F000196510001666FA8
:100AC800676B66BF6707BCEC15F00001D890663706
:100AD80067370001D89066376737240E000166270C
:100AE800000E00016723EB0E00016625F66E3E0E30
:100AF80000016721F76E0900F5CF75F00900F5CF01
:100B080076F00900F5CF77F00A00F5CF78F0000EFF
:100B18000001636F0A0E626F000196510001606F59
:100B2800616B60BF6107CDEC16F00001D8906037AB
:100B380061370001D89060376137EB0E00016025FE
:100B4800F66E3E0E00016121F76E0900F5CF79F0CF
:100B58000900F5CF7AF00900F5CF7BF00A00F5CF50
:100B68007CF053EC09F094D700019651040DEB0E7C
:100B7800F324F66E3E0EF420F76E0900F5CF8EF0E2
:100B88000900F5CF8FF00900F5CF90F00A00F5CFF6
:100B980091F0120000019651800A120FD8A0B2D02D
:100BA800000E0001696F0A0E686F000E0001636F86
:100BB800640E626F000196510001606F616B60BF47
:100BC8006107CDEC16F060C066F061C067F0BCEC60
:100BD80015F00001D890663767370001D89066375E
:100BE8006737240E00016627000E000167231F0ED9
:100BF80000016625F66E3F0E00016721F76E0900B9
:100C0800F5CF79F00900F5CF7AF00900F5CF7BF040
:100C18000A00F5CF7CF0000E0001696F640E686F62
:100C2800000196510001666F676B66BF6707BCECF1
:100C380015F00001D890663767370001D8906637FD
:100C48006737480E00016627000E000167231F0E54
:100C580000016625F66E3F0E00016721F76E090058
:100C6800F5CF75F00900F5CF76F00900F5CF77F0EC
:100C78000A00F5CF78F053EC09F075C092F076C011
:100C880093F077C094F078C095F092C075F093C057
:100C980076F094C077F095C078F0000E0001636F8D
:100CA8000A0E626F000196510001606F616B60BFB0
:100CB8006107CDEC16F00001D8906037613700016C
:100CC800D890603761371F0E00016025F66E3F0E21
:100CD80000016121F76E0900F5CF79F00900F5CF21
:100CE8007AF00900F5CF7BF00A00F5CF7CF053ECE1
:100CF80009F075C08EF076C08FF077C090F078C09C
:100D080091F0120000019651800A750FD8A05DD0AD
:100D1800000E0001696F0A0E686F0001965100010C
:100D2800666F676B66BF6707BCEC15F00001D8906B
:100D3800663767370001D89066376737240E000199
:100D48006627000E000167231F0E00016625F66E58
:100D58003F0E00016721F76E0900F5CF75F0090015
:100D6800F5CF76F00900F5CF77F00A00F5CF78F0E7
:100D7800000E0001636F0A0E626F000196510001B8
:100D8800606F616B60BF6107CDEC16F00001D89011
:100D9800603761370001D890603761371F0E000156
:100DA8006025F66E3F0E00016121F76E0900F5CF50
:100DB80079F00900F5CF7AF00900F5CF7BF00A0049
:100DC800F5CF7CF053EC09F094D700019651040D4F
:100DD8001F0EF324F66E3F0EF420F76E0900F5CFD0
:100DE8008EF00900F5CF8FF00900F5CF90F00A00DA
:100DF800F5CF91F0120000019E51800B0001AB6FFE
:100E080000019E519E250001AD6F00019DAF02D0EB
:100E18000001AD810001AD510001D8B412D000012C
:100E2800AD29D8A409D0000E00019B6F000E9C6F5D
:100E3800000E9D6F000E9E6F00019D8F000E000139
:100E480008D0000E00019B6F000E9C6F000E9D6F76
:100E5800000E9E6F0001A251800B0001AC6F0001D3
:100E6800AB510001AC19D8B402D00001AB8D000120
:100E7800A251A2250001AC6F0001A1AF02D0000170
:100E8800AC810001AC510001D8B412D00001AC29EA
:100E9800D8A409D0000E00019F6F000EA06F000EAD
:100EA800A16F000EA26F0001A18F000E000108D0F3
:100EB800000E00019F6F000EA06F000EA16F000EC4
:100EC800A26F0001AD510001AC5DD8B024D0000183
:100ED800ABAD03D0800E0001AB1BADC0AEF0ACC013
:100EE800ADF0AEC0ACF09BC0AEF09FC09BF0AEC002
:100EF8009FF09CC0AEF0A0C09CF0AEC0A0F09DC01A
:100F0800AEF0A1C09DF0AEC0A1F09EC0AEF0A2C0F0
:100F18009EF0AEC0A2F0000E0001AE6F0001AD5110
:100F28000001A36FA46B0001A31FA41FA34BA42B54
:100F38000001AC510001A56FA66B0001A35100018F
:100F4800A5270001A4510001A6230001A6BF3DD09A
:100F58000001A65105E11A0E0001A55DD8A035D003
:100F680000019B5100019C1100019D1100019E117F
:100F7800D8B402D0010E01D0000E0001AE6F000EF1
:100F880000019B6F000E9C6F000E9D6F000E9E6F00
:100F9800ACC0ADF020D00001AEA107D00001D890C0
:100FA800AE3101090001AE6F03D00001D890AE3315
:100FB80000019BA102D00001AE8F00019E359E3337
:100FC8009D339C339B330001AD2B0001AC510001D4
:100FD800AD5DD8A0E0D70001ABBD3FD00001AD5159
:100FE8000001D8A40AD0000E00019B6F000E9C6F70
:100FF800000E9D6F000E9E6F120000019F510001B0
:101008009B270001A05100019C230001A151000170
:101018009D230001A25100019E2300019EA1CCD076
:101028000001AEA109D00001D890AE330001AE5145
:1010380001090001AE6F03D00001D890AE33000162
:101048009BA102D00001AE8F00019E359E339D33D7
:101058009C339B330001AD2BAFD000019F510001A1
:101068009B5D0001A05100019C590001A1510001A4
:101078009D5900019E51800A0001A36F0001A251F1
:10108800800A0001A359D8B050D09BC0A3F09CC0DF
:10109800A4F09DC0A5F09EC0A6F00001A31FA41F48
:1010A800A51FA61FA32B000EA423A523A62300017A
:1010B8009F510001A3250001A76F0001A051000165
:1010C800A4210001A86F0001A1510001A521000180
:1010D800A96F0001A2510001A6210001AA6FFF0E0D
:1010E8000001A72500019B6FFF0E0001A821000148
:1010F8009C6FFF0E0001A92100019D6FFF0E0001EA
:10110800AA2100019E6F800E0001AB1B0001AE6D8D
:101118000001AE510001D8A418D0010E00019B2790
:10112800000E9C239D239E2310D000019F51000197
:101138009B5F0001A05100019C5B0001A1510001CF
:101148009D5B0001A25100019E5B00019B510001C3
:101158009C1100019D1100019E11D8A42AD0000104
:10116800AE510001D8A425D0000E00019B6F000EDF
:101178009C6F000E9D6F000E9E6F12000001D890AC
:101188009B379C379D379E370001AEAF02D00001D8
:101198009B810001AEA103D0D880000102D00001DC
:1011A800D890AE370001AD510001D8B402D000018B
:1011B800AD0700019DAFE2D7000E0001AC6F000142
:1011C800AEAF0DD0AEC0A3F07F0E0001A317D8A418
:1011D80003D000019BA103D0010E0001AC6F0001F8
:1011E800AC510001D8B426D0010E00019B27000E97
:1011F8009C239D239E2300019EA11CD09BC0A3F08D
:101208009CC0A4F09DC0A5F09EC0A6F00001A63524
:10121800A633A533A433A333A3C09BF0A4C09CF08A
:10122800A5C09DF0A6C09EF00001AD29D8B402D09B
:101238000001AD2B0001AD29D8B405D00001AD5196
:101248000001D8A411D0000E00019B6F000E9C6F06
:10125800000E9D6F000E9E6F0001AD510001D8A4D5
:1012680003D0000E0001AB6F0001ADA103D0000157
:101278009D8F02D000019D9F0001D890AD310001E3
:101288009E6F0001ABAF02D000019E8F9BC09BF008
:101298009CC09CF09DC09DF09EC09EF01200000175
:1012A8007851800B0001816F000178517825000189
:1012B800876F000177AF02D0000187810001875155
:1012C8000001D8B410D000018729D8A409D0000E95
:1012D8000001756F000E766F000E776F000E786F45
:1012E8000001778F09D0000E0001756F000E766F30
:1012F800000E776F000E786F00017C51800B0001A3
:10130800811B00017C517C250001826F00017BAFAD
:1013180002D000018281000182510001D8B410D0AE
:1013280000018229D8A409D0000E0001796F000EAF
:101338007A6F000E7B6F000E7C6F00017B8F09D0E7
:10134800000E0001796F000E7A6F000E7B6F000EA1
:101358007C6F000182510001D8B405D0000187518B
:101368000001D8A40AD0000E0001756F000E766F38
:10137800000E776F000E786F120000017B5100019C
:101388007503F3CF8CF0F4CF8DF000018C51000180
:10139800836F846B856B866B00018D510001886FAC
:1013A800896B8A6B8B6B00017A5100017603F3CF4E
:1013B8008CF0F4CF8DF000018C5100018327000ED2
:1013C80084238523862300018D5100018827000E80
:1013D80089238A238B230001795100017703F3CFF6
:1013E8008CF0F4CF8DF000018C5100018327000EA2
:1013F80084238523862300018D5100018827000E50
:1014080089238A238B2385C086F084C085F083C016
:1014180084F00001836B0001795100017603F3CF5A
:101428008CF0F4CF8DF000018C510001832700016E
:101438008D5100018423000E00018523000E000158
:10144800862300017A5100017503F3CF8CF0F4CFA5
:101458008DF000018C510001832700018D5100019E
:101468008423000E00018523000E0001862385C019
:1014780086F084C085F083C084F00001836B00018E
:10148800795100017503F3CF8CF0F4CF8DF0000192
:101498008C510001832700018D5100018423000E27
:1014A80000018523000E0001862300017B51000105
:1014B8007603F3CF8CF0F4CF8DF000018C5100014E
:1014C800882700018D5100018923000E00018A231D
:1014D800000E00018B2300017A5100017703F3CF3E
:1014E8008CF0F4CF8DF000018C51000188270001A9
:1014F8008D5100018923000E00018A23000E00018E
:101508008B2300017B5100017703F3CF8CF0F4CFDC
:101518008DF000018C5100017D6F00018D5100019B
:101528007E6F00017F6B0001806B7FC080F07EC002
:101538007FF07DC07EF000017D6B00017D510001D0
:10154800882700017E510001892300017F51000195
:101558008A230001805100018B2383C07DF084C061
:101568007EF085C07FF086C080F0190E06D000019D
:10157800D89080337F337E337D33E82EF8D700014F
:101588007D510001882700017E5100018923000157
:101598007F5100018A230001805100018B2385C0FF
:1015A80086F084C085F083C084F00001836B00015D
:1015B800825187C07DF000017E6B00017D27000EFF
:1015C8007E23820E00017D2500018C6FFF0E000135
:1015D8007E2100018D6F15D00001D890883789379A
:1015E8008A378B37000186AF02D00001888100015D
:1015F800D890833784378537863700018C07D8A081
:101608008D0700018AAFE8D7000E0001826F000144
:1016180086AF24D0FF0E0001831500017D6FFF0EF9
:101628000001841500017E6FFF0E00018515000181
:101638007F6F7F0E000186150001806F00017D51CC
:1016480000017E1100017F1100018011D8A403D090
:10165800000188A103D0010E0001826F00018251B0
:101668000001D8B423D0010E00018827000E892379
:101678008A238B2300018BA119D088C07DF089C0F3
:101688007EF08AC07FF08BC080F000018035803307
:101698007F337E337D337DC088F07EC089F07FC084
:1016A8008AF080C08BF000018C4B8D2B00018DBF20
:1016B80010D000018D5104E100018C29D8A009D077
:1016C800000E0001886F000E896F800E8A6F7F0EF2
:1016D8002BD000018DBF07D000018D5111E1000111
:1016E8008C05D8B00DD0000E0001886F000E896FF0
:1016F800000E8A6F000E8B6F000E0001816F15D0EF
:101708008CC087F0FF0E00018817FF0E89177F0E27
:101718008A17000E8B17000187A102D000018A8F5B
:101728000001D890873100018B6F000181510001C1
:101738008B1388C075F089C076F08AC077F08BC0AB
:1017480078F012004AEC15F0839EAA0E0001ED6FA6
:10175800010E0001EE6F010E0001EF6F010E000196
:10176800F06F010E0001F16F010E0001F26FAA0E79
:101778000001F36F000E0001F46FCF0E236EF70E19
:10178800246E330E256E3F0E266E000E276E000E59
:10179800286E0C0E296E420E2A6E79EC16F03AEC81
:1017A8001AF044B294D0020E3D6E000E366E000E52
:1017B800356E5A0E416E000E3C6EACA2FED74EEC52
:1017C80012F082D0A8EC19F0010ED4EC14F0BA0E85
:1017D8000001716F3F0E0001726FD7EC19F0020E15
:1017E800D4EC14F0900E0001716F3F0E0001726F7F
:1017F800D7EC19F0030ED4EC14F07B0E0001716FD6
:101808003F0E0001726FD7EC19F0040ED4EC14F0FF
:10181800BA0E0001716F3F0E0001726FD7EC19F01C
:101828002BC0C1F02CC0C2F02DC0C3F02EC0C4F034
:101838000001C11FC21FC31FC41FC12B000EC2233A
:10184800C323C4232F500001C1250001C56F3050A8
:101858000001C2210001C66F31500001C3210001FF
:10186800C76F32500001C4210001C86F0001C85180
:101878000001C7110001C61105E1320E0001C55D66
:10188800D8A019D02FC02BF030C02CF031C02DF0CB
:1018980032C02EF083AE02D0010E01D0000EFF0A36
:1018A8000001C16F0001C133C13383500001C11968
:1018B8007F0BC119836E3AEC1AF0010E0001676FB5
:1018C8002C0E666F3BEC19F044A27CD7839EB1ECDA
:1018D80018F080A403D0000E436E0AD080B604D05E
:1018E800010E436E020E03D0020E436E010E3D6ED2
:1018F80023C079F024C07AF025C07BF026C07CF0A4
:1019080033500001676F686B696B6A6B000E0CECF3
:101918000FF067C075F068C076F069C077F06AC0EC
:1019280078F053EC09F075C097F076C098F077C05E
:1019380099F078C09AF04EEC14F000019751416E7E
:101948004350D8B483D0840E346441D027C079F092
:1019580028C07AF029C07BF02AC07CF07E0E0001F6
:10196800C16FFF0E0001C26F34500001C36FC46B1A
:101978000001C1510001C3270001C2510001C42365
:10198800C3C067F0C4C068F00001000E68BFFF0E56
:10199800696F6A6F010E0CEC0FF067C075F068C0D4
:1019A80076F069C077F06AC078F053EC09F075C03A
:1019B80097F076C098F077C099F078C09AF04EEC1E
:1019C80014F097C035F098C036F0000E3ED0000EE7
:1019D800366E000E356E330E0001796F330E7A6F56
:1019E800F30E7B6F3F0E7C6F34500001C16FC26BEA
:1019F8000001C11FC21FC14BC22B820E0001C127AB
:101A0800000EC223C1C067F0C2C068F00001000E1A
:101A180068BFFF0E696F6A6F010E0CEC0FF067C0AC
:101A280075F068C076F069C077F06AC078F053EC5A
:101A380009F075C097F076C098F077C099F078C033
:101A48009AF04EEC14F0000197513C6EE3C0C1F0DF
:101A5800E4C0C2F0E5C0C3F0E6C0C4F00001C11F95
:101A6800C21FC31FC41FC12B000EC223C323C4231C
:101A78002F500001C1250001C56F30500001C2215F
:101A88000001C66F31500001C3210001C76F3250F9
:101A98000001C4210001C86F0001C8510001C7112D
:101AA8000001C61105E1020E0001C55DD8A00AD0EB
:101AB8002FC0E3F030C0E4F031C0E5F032C0E6F00A
:101AC8004EEC12F0E7C0C1F0E8C0C2F0E9C0C3F0C4
:101AD800EAC0C4F00001C11FC21FC31FC41FC12B2D
:101AE800000EC223C323C4232F500001C1250001C7
:101AF800C56F30500001C2210001C66F315000018E
:101B0800C3210001C76F32500001C4210001C86F12
:101B18000001C8510001C7110001C61105E1320ECC
:101B28000001C55DD8A039D62FC0E7F030C0E8F075
:101B380031C0E9F032C0EAF0BEEC13F02ED6000155
:101B48009A6F6D0E00019A65C4D0000E0001696F8E
:101B58000A0E686F000E0001636F640E626F9AC010
:101B680060F00001616BCDEC16F060C066F061C0FA
:101B780067F0BCEC15F00001D890663767370001B4
:101B8800D89066376737240E00016627000E0001DB
:101B98006723EB0E00016625F66E3E0E00016721F5
:101BA800F76E0900F5CF79F00900F5CF7AF0090052
:101BB800F5CF7BF00A00F5CF7CF0000E0001696FCD
:101BC800640E686F9AC066F00001676BBCEC15F094
:101BD8000001D890663767370001D89066376737B5
:101BE800480E00016627000E00016723EB0E000176
:101BF8006625F66E3E0E00016721F76E0900F5CFE7
:101C080075F00900F5CF76F00900F5CF77F00A00F6
:101C1800F5CF78F053EC09F075C096F076C097F0E0
:101C280077C098F078C099F0000E0001636F0A0E33
:101C3800626F9AC060F00001616BCDEC16F0000194
:101C4800D890603761370001D89060376137EB0E64
:101C580000016025F66E3E0E00016121F76E090055
:101C6800F5CF79F00900F5CF7AF00900F5CF7BF0D0
:101C78000A00F5CF7CF096C075F097C076F098C052
:101C880077F099C078F053EC09F075C092F076C0FF
:101C980093F077C094F078C095F092C075F093C037
:101CA80076F094C077F095C078F0000E0001796F57
:101CB800000E7A6F000E7B6F3F0E7C6F53EC09F0BD
:101CC80075C08EF076C08FF077C090F078C091F034
:101CD80012000A0E00019A6572D0000E0001636FAF
:101CE8000A0E626F9AC060F00001616BCDEC16F0CD
:101CF8000001D890603761370001D89060376137AC
:101D0800EB0E00016025F66E3E0E00016121F76EB4
:101D18000900F5CF79F00900F5CF7AF00900F5CF81
:101D28007BF00A00F5CF7CF0000E0001696F0A0E07
:101D3800686F9AC066F00001676BBCEC15F0000193
:101D4800D890663767370001D89066376737240E12
:101D580000016627000E00016723EB0E00016625CF
:101D6800F66E3E0E00016721F76E0900F5CF75F09B
:101D78000900F5CF76F00900F5CF77F00A00F5CF26
:101D880078F053EC09F075C096F076C097F077C0FC
:101D980098F078C099F096C075F097C076F098C022
:101DA80077F099C078F0000E0001796F000E7A6F15
:101DB800000E7B6F3F0E7C6F53EC09F081D700015A
:101DC8009A51040DEB0EF324F66E3E0EF420F76ED6
:101DD8000900F5CF75F00900F5CF76F00900F5CFC9
:101DE80077F00A00F5CF78F0000E0001796F000E49
:101DF8007A6F000E7B6F3F0E7C6F53EC09F075C055
:101E08008EF076C08FF077C090F078C091F0120015
:101E180000016F6F00016F510001D8B41ED000019E
:101E28006AAF1BD067C06BF068C06CF069C06DF01A
:101E38006AC06EF000016B1F6C1F6D1F6E1F6B2B4D
:101E4800000E6C236D236E236BC071F06CC072F0B2
:101E58006DC073F06EC074F008D067C071F068C0D0
:101E680072F069C073F06AC074F000016751000134
:101E780068110001691100016A11D8A40AD0000E86
:101E88000001676F000E686F000E696F000E6A6FC1
:101E98001200960E0001706F08D00001702B00012F
:101EA800D8907433733372337133000E0001711597
:101EB80000016B6F000E0001721500016C6F000EBF
:101EC8000001731500016D6FFE0E0001741500010D
:101ED8006E6F00016B5100016C1100016D11000162
:101EE8006E11D8B410D0D9D70001702B010E0001A3
:101EF8007127000E7223732374230001D890743362
:101F0800733372337133000E0001711500016B6F6A
:101F1800000E0001721500016C6F000E00017315B0
:101F280000016D6FFF0E0001741500016E6F000156
:101F38006B5100016C1100016D1100016E11D8B4D4
:101F480009D0D2D7000170070001D89071377237D5
:101F580073377437000173BF04D0020E000170613B
:101F6800F1D7000170B109D0FF0E00017117FF0E03
:101F780072177F0E7317FF0E74170001D890703315
:101F880070C06BF000016C6B6D6B6E6B6BC06EF0AC
:101F980000016D6B6C6B6B6B00016B510001711371
:101FA80000016C510001721300016D51000173139F
:101FB80000016E510001741300016F510001D8B483
:101FC80005D000016AAF02D00001748F71C067F0BC
:101FD80072C068F073C069F074C06AF0120062C021
:101FE80068F00001696B6A6B0001613500016837B0
:101FF80001E36981000168510001706F00017051AF
:10200800D8A40AD0000E0001606F000E616F000EA8
:10201800626F000E636F120066C068F00001696BA2
:102028006A6B000165350001683701E369810001C9
:10203800685100016F6F00016F51D8A40AD0000EDB
:102048000001606F000E616F000E626F000E636F1B
:1020580012000001618FFF0E00016017FF0E0001E2
:102068006117000E000162170001658FFF0E000165
:102078006417FF0E00016517000E00016617000EB9
:1020880000016B6F000E6C6F000E6D6F000E6E6FAF
:102098007F0E0001705F00016F51980F0001705FA3
:1020A800180E00016F6F0001D8906B376C376D37D1
:1020B8006E37000164510001605D00016551000147
:1020C80061590001665100016259D8A00ED0000183
:1020D80064510001605F000165510001615B00010E
:1020E80066510001625B00016B810001D890603786
:1020F8006137623700016F2FD6D7000170AF1AD051
:1021080000017051800A970FD8B00AD0000E000164
:10211800606F000E616F000E626F000E636F120039
:102128000001D8906E336D336C336B330001703F10
:10213800F7D71BD0170E0001706512D0000E0001F2
:10214800606F000E616F000E626F000E636F120009
:102158000001D8906B376C376D376E370001700708
:10216800000170510001D8A4F3D76BC060F06CC0B7
:1021780061F06DC062F06EC063F01200000E0001E5
:1021880060150001686F000E000161150001696F9C
:10219800800E0001621500016A6F7F0E0001631551
:1021A80000016B6F000168510001691100016A119B
:1021B80000016B11D8A409D0000E0001606F000E59
:1021C800616F000E626F000E636F000E00016415F0
:1021D8000001686F000E000165150001696F800E2F
:1021E8000001661500016A6F7F0E00016715000186
:1021F8006B6F000168510001691100016A1100014B
:102208006B11D8A409D0000E0001646F000E656F31
:10221800000E666F000E676F000163AF26D060C0C6
:1022280068F061C069F062C06AF063C06BF00001D9
:10223800681F691F6A1F6B1F682B000E69236A23BA
:102248006B23000E000168250001606F000E00017D
:1022580069210001616F000E00016A210001626FAF
:10226800800E00016B210001636F000167AF26D06B
:1022780064C068F065C069F066C06AF067C06BF05A
:102288000001681F691F6A1F6B1F682B000E6923F6
:102298006A236B23000E000168250001646F000E9D
:1022A800000169210001656F000E00016A2100012B
:1022B800666F800E00016B210001676F000E000140
:1022C800601B000E611B000E621B800E631B000E5C
:1022D8000001641B000E651B000E661B800E671B49
:1022E800000164510001605D000165510001615900
:1022F80000016651000162590001675100016359EC
:10230800D8B002D0D8901200D880120000016235EF
:10231800633500016D6F00016D51D8A40AD0000E1D
:102328000001606F000E616F000E626F000E636F38
:10233800120000016635673500016C6F00016C51B1
:10234800D8A40AD0000E0001606F000E616F000E65
:10235800626F000E636F12000001628FFF0E0001B2
:102368006017FF0E6117FF0E6217000E631700015A
:10237800668FFF0E00016417FF0E6517FF0E6617C4
:10238800000E6717000E0001686F000E696F000EDF
:102398006A6F000E6B6F7F0E00016D5F00016C515C
:1023A800A00F00016D5F200E00016C6F0001D89036
:1023B800683769376A376B37000164510001605D1F
:1023C800000165510001615900016651000162591F
:1023D8000001675100016359D8A012D0000164516F
:1023E8000001605F000165510001615B00016651F9
:1023F8000001625B000167510001635B00016881B5
:102408000001D890603761376237633700016C2F5D
:10241800CDD700016DAF1AD000016D51800A9F0F12
:10242800D8B00AD0000E0001606F000E616F000E78
:10243800626F000E636F12000001D8906B336A332D
:102448006933683300016D3FF7D71BD01F0E0001B9
:102458006D6512D0000E0001606F000E616F000EF6
:10246800626F000E636F12000001D89068376937F9
:102478006A376B3700016D0700016D510001D8A460
:10248800F3D768C060F069C061F06AC062F06BC0E1
:1024980063F01200020E4318D8A410D035C068F0BB
:1024A80036C069F00001D890693368330001D890CC
:1024B8006933683368C035F069C036F03650406E0D
:1024C8004050D8A402D0800E406E35C03FF03DC0C9
:1024D800EEF040C0EFF03FC0F0F04350D8B406D063
:1024E8007F0E346409D0850E346006D0800E00015A
:1024F800EF6F010E0001F06F41C0F1F03CC0F2F047
:10250800000E00016A6F050E00016A6501D01AD03D
:1025180000016A51010DED0EF324D96E000EF4206E
:10252800DA6EDF50D8A40BD000016A51010DED0E10
:10253800F324D96E000EF420DA6E010EDF6E00016E
:102548006A2BE1D7000E426E010E00016B6F050E7B
:1025580000016B6501D019D000016B51010DD10E3E
:10256800F324D96E000EF420DA6E00016B51010DD0
:10257800ED0EF324E16E000EF420E26EDE50E61854
:10258800D8B4422A00016B2BE2D7ACA204D0050EC6
:102598004218D8A403D04350D8A412004350D8A45A
:1025A80007D0000E0001676F640E666F3BEC19F0F0
:1025B800F29EF29CED0E0001616F000E0001626F49
:1025C80002EC1AF0F28EF28C000E00016C6F050E10
:1025D80000016C6501D0120000016C51010DED0E77
:1025E800F324D96E000EF420DA6E00016C51010D4F
:1025F800D10EF324E16E000EF420E26EDFCFE7FF88
:1026080000016C2BE4D700016E6F00016E515BEC8A
:102618001AF08D948B928B90000E0001676F640EF8
:10262800666F3BEC19F0000E0001686F010E0001A7
:10263800696F010E00016A6F000E1EEC19F0000EA2
:102648000001676F640E666F3BEC19F0000E000125
:10265800686F010E0001696F010E00016A6F000EBC
:102668001EEC19F0000E0001676F0A0E666F3BEC56
:1026780019F0000E0001686F010E0001696F010E6C
:1026880000016A6F000E1EEC19F0000E0001686F61
:10269800010E0001696F000E00016A6F000E1EEC4A
:1026A80019F0000E0001686F010E0001696F000E3D
:1026B80000016A6F000E1EEC19F0000E0001686F31
:1026C800000E0001696F000E00016A6F010E1EEC1A
:1026D80019F0000E0001686F000E0001696F000E0E
:1026E80000016A6F000E1EEC19F0000E0001686F01
:1026F800000E0001696F000E00016A6F010E1EECEA
:1027080019F0000E0001686F000E0001696F000EDD
:1027180000016A6F000E1EEC19F0000E0001686FD0
:10272800000E0001696F010E00016A6F000E1EECB9
:1027380019F0000E0001686F000E0001696F000EAD
:1027480000016A6F000E1EEC19F0010E0001686F9F
:10275800010E0001696F000E00016A6F000E1EEC89
:1027680019F0A8EC19F0000E00016C6F000E8FEC48
:1027780019F01200010E0001636F160E626FEBC0B4
:1027880060F0ECC061F002EC18F0000160C067F086
:10279800000161C068F00001696B6A6B000E0CEC07
:1027A8000FF067C0DFF068C0E0F069C0E1F06AC010
:1027B800E2F0A8EC19F0010ED4EC14F0A50E00011B
:1027C800716F3F0E0001726FD7EC19F0020ED4EC56
:1027D80014F0CF0E0001716F3F0E0001726FD7EC3D
:1027E80019F04350D8B416D0020E3D18D8A409D019
:1027F800F90E0001716F3F0E0001726FD7EC19F0EE
:1028080011D0EF0E0001716F3F0E0001726FD7EC0F
:1028180019F008D0FD0E0001716F3F0E0001726FB4
:10282800D7EC19F0030ED4EC14F0190E0001B76FB1
:10283800010E0001B86FDB0E0001B96F3F0E0001F9
:10284800BA6FDFC0BBF0E0C0BCF0E1C0BDF0E2C0D1
:10285800BEF062EC00F0000E0101246F190E0001B9
:10286800716F010E0001726F16EC1AF0F40E000180
:10287800716F3F0E0001726FD7EC19F0040ED4ECA3
:1028880014F0BA0E0001716F3F0E0001726FD7ECA1
:1028980019F01200000199359A350001A06F000166
:1028A800A051D8A40AD0000E0001976F000E986FAF
:1028B800000E996F000E9A6F120097C09BF098C097
:1028C8009CF099C09DF09AC09EF0200E06D00001A1
:1028D800D8909E339D339C339B33E82EF8D7000164
:1028E8009B5100019F6F0001998FFF0E0001971700
:1028F800FF0E9817FF0E9917000E9A17960E0001F3
:10290800A05F0001A0AF1AD00001A051800A970F64
:10291800D8B00AD0000E0001976F000E986F000E15
:10292800996F000E9A6F12000001D8909A3399336C
:10293800983397330001A03FF7D71BD01F0E000133
:10294800A06512D0000E0001976F000E986F000E60
:10295800996F000E9A6F12000001D8909737983738
:1029680099379A370001A0070001A0510001D8A4A7
:10297800F3D700019F510001D8B409D000019A1F74
:10298800991F981F976D000E982399239A2397C033
:1029980097F098C098F099C099F09AC09AF01200F0
:1029A80000016C6F64D0000E0001686F000E00011A
:1029B800696F000E00016A6F010E1EEC19F0000E1F
:1029C8000001686F000E0001696F000E00016A6F58
:1029D800000E1EEC19F01200010E0001686F000EC7
:1029E8000001696F000E00016A6F010E1EEC19F0FC
:1029F800000E0001686F000E0001696F000E0001F3
:102A08006A6F000E1EEC19F01200000E0001686FCC
:102A1800000E0001696F010E00016A6F010E1EECC5
:102A280019F0010E0001686F000E0001696F000EB9
:102A380000016A6F000E1EEC19F01200010E000171
:102A4800686F000E0001696F010E00016A6F010EC8
:102A58001EEC19F0010E0001686F000E0001696F8D
:102A6800000E00016A6F000E1EEC19F01200000142
:102A78006C51010AD8B497D7030AD8B4ADD7010A64
:102A8800D8B4C3D7070AD8A41200D8D7000E896EC5
:102A98000F0E926E000E8A6E9368000E8B6EB00E4B
:102AA800946E000E8C6E000E956E000E8D6E000EEC
:102AB800966E9E9AA192D08E9F8AA2924F0EAB16C6
:102AC800AC9ACF0E9D16000E0001676F0A0E666F56
:102AD8003BEC19F0000E0001616F190E606F7C0E5F
:102AE8003EEC18F00D0EC16EC298C296C294C08A10
:102AF800C088C096C084C092C080C09EC2808384B3
:102B0800000E0001676F0A0E666F3BEC19F08386B2
:102B1800010EC1EC19F0100E07EC13F0000E52EC88
:102B28001AF0A8EC19F0010ED4EC14F0E70E00012D
:102B3800716F3F0E0001726FD7EC19F0010E0001A2
:102B4800676F2C0E666F3BEC19F083948396630EC7
:102B5800B36EC00EB26E9D8AA082F28EF28CAB8EDE
:102B6800010EB16EA8EC19F0AA0E48EC1AF012008A
:102B7800000E00016B6F000169AF08D00001686D9D
:102B8800691FD8B0692B010E00016B6F000167AF98
:102B980008D00001666D671FD8B0672B010E0001D1
:102BA8006B1B000E00016D6F000E6C6F0001685109
:102BB80000016911D8B42CD0010E00016A6F06D04B
:102BC8000001D8906837693700016A2B000169AFA6
:102BD800F7D70001D8906C376D37000168510001B4
:102BE800665D0001695100016759D8A00AD000014B
:102BF80068510001665F000169510001675B0001CF
:102C08006C810001D8906933683300016A2FE1D7DD
:102C180000016B510001D8B405D000016C6D6D1F27
:102C2800D8B06D2B6CC066F06DC067F01200000E56
:102C38000001686F000E696F000E6A6F000E6B6FFF
:102C4800000164510001651100016611000167115E
:102C5800D8B442D0010E00016C6F08D00001D890A2
:102C6800643765376637673700016C2B000167AF3B
:102C7800F5D70001D890683769376A376B37000194
:102C880064510001605D0001655100016159000156
:102C98006651000162590001675100016359D8A0CB
:102CA80012D0000164510001605F0001655100010C
:102CB800615B000166510001625B00016751000120
:102CC800635B000168810001D89067336633653320
:102CD800643300016C2FCDD768C060F069C061F023
:102CE8006AC062F06BC063F012009EAA4FD0F29ED9
:102CF800F29CA0929D9AAA0EAE18D8A41AD0000EE3
:102D08000001626F060E0001626501D012D0838E49
:102D18009EAAFED700016251010DC90EF324D96E97
:102D2800000EF420DA6EAECFDFFF9E9A0001622B10
:102D3800E9D7AA0E0001CE19D8A425D00001CAA14E
:102D480002D0448001D04490CBC03BF0800E3B18A9
:102D5800D8A402D0000E3B6ECCC03AF0CDC038F0FB
:102D6800CEC037F03A503BC060F00001616B60C0E4
:102D780061F00001606B000160110001EB6F000160
:102D880061510001EC6F9E9A9D8AA082F28EF28CAE
:102D98001200000E0001656F000161AF08D000014C
:102DA800606D611FD8B0612B010E0001656F0001D5
:102DB80063AF05D00001626D631FD8B0632B0001BB
:102DC800625100016311D8B426D0010E0001646F6E
:102DD80006D00001D890623763370001642B0001E8
:102DE80063AFF7D7000162510001605D00016351D4
:102DF80000016159D8A008D0000162510001605F4C
:102E0800000163510001615B0001D89063336233B4
:102E18000001642FE7D7000165510001D8B405D03F
:102E28000001606D611FD8B0612B60C060F061C0A7
:102E380061F0120000016451000165110001661182
:102E480000016711D8B43AD0010E0001686F08D0AC
:102E58000001D89064376537663767370001682BFB
:102E6800000167AFF5D7000164510001605D000102
:102E78006551000161590001665100016259000164
:102E8800675100016359D8A010D0000164510001B6
:102E9800605F000165510001615B0001665100013E
:102EA800625B000167510001635B0001D8906733E2
:102EB8006633653364330001682FD5D760C060F08E
:102EC80061C061F062C062F063C063F012009EAA44
:102ED80047D0F29EF29CA0929D9AAA0EAE18D8A452
:102EE80016D0000E146E060E146401D010D0838E16
:102EF8009EAAFED71450010DC90EF324D96E000EF8
:102F0800F420DA6EAECFDFFF9E9A142AECD7AA0E11
:102F18000001CE19D8A421D00001CAA102D0448052
:102F280001D04490CBC03BF0800E3B18D8A402D00F
:102F3800000E3B6ECCC03AF0CDC038F0CEC037F0B2
:102F48003A503BC012F0136A12C013F0126A121002
:102F58000001EB6F13500001EC6F9E9A9D8AA082CE
:102F6800F28EF28C12000001706F8D8400017045A2
:102F7800010B00016C6F00017045E846030B010B63
:102F880000016D6F00017039E842070B010B000169
:102F98006E6F000170390F0B010B00016F6F6DC070
:102FA80068F06EC069F06FC06AF000016C511EECE9
:102FB80019F000017039E8461F0B010B00016C6F16
:102FC80000017041E8423F0B010B00016D6F0001E9
:102FD800D8907031010B00016E6F00017051010B28
:102FE80000016F6F6DC068F06EC069F06FC06AF065
:102FF80000016C511EEC19F08D941200000E0001B6
:10300800666F000E656F0001625100016311D8B44C
:103018002CD0010E0001646F06D00001D8906237F1
:1030280063370001642B000163AFF7D70001D89024
:1030380065376637000162510001605D0001635128
:1030480000016159D8A00AD0000162510001605FF7
:10305800000163510001615B000165810001D890A6
:10306800633362330001642FE1D765C060F066C046
:1030780061F012000001626F000EAC6E000EAB6EC4
:10308800000162B1AC88000162A302D0AC8CAB8CA9
:10309800000162B5AC8E000162A702D0AB8801D0F6
:1030A800AB8A000162B9AC849E98000162BBAB8612
:1030B800000162AD02D09D8A01D09D9A9E9A0001BE
:1030C80062AF02D09D8801D09D9860C0AFFF00011B
:1030D8006151B06EAC8AAB8E949C948EACA81200F1
:1030E800ACBE1200948C12000600E9CF17F0EACFAC
:1030F80018F0E1CF19F0E2CF1AF0D9CF1BF0DACFF0
:103108001CF0F3CF1DF0F4CF1EF0F6CF1FF0F7CF71
:1031180020F0F8CF21F0F5CF22F06BEC17F022C0A9
:10312800F5FF21C0F8FF20C0F7FF1FC0F6FF1EC043
:10313800F4FF1DC0F3FF1CC0DAFF1BC0D9FF1AC083
:10314800E2FF19C0E1FF18C0EAFF17C0E9FF16C087
:10315800FBFF15C0FAFF46921100000E3E6E010EED
:103168003E6401D01200C282C2B2FED73E50010DA9
:10317800330EF324D96E000EF420DA6EC4CFDFFFCD
:10318800C2A402D0010E01D0000EFF0A0001606F38
:10319800000160476047C25000016019FB0B6019CD
:1031A800C26E3E2ADCD7000E0001B31B000EB41B12
:1031B800000EB51B800EB61BAFC09BF0B0C09CF0D4
:1031C800B1C09DF0B2C09EF0B3C09FF0B4C0A0F0F3
:1031D800B5C0A1F0B6C0A2F0FFEC06F09BC0AFF0FE
:1031E8009CC0B0F09DC0B1F09EC0B2F0120001EEDC
:1031F80019F00C0EEE6AE806FDE100EEC9F02C0E9F
:10320800EE6AE806FDE1446A00EE23F0210EEE6A5C
:10321800E806FDE1C00EF66E340EF76E000EF86E8D
:103228000900F5CF45F046904692000EF86E000171
:10323800A6EF0BF000016B6F00016AB102D08B940E
:1032480001D08B84000169B102D08B9601D08B86A6
:10325800000168B102D08C9001D08C8000016BB164
:1032680002D08C9201D08C8229EC1AF0120045C051
:1032780060F00001616B66C062F067C063F074ECD7
:1032880019F060C0F5F061C0F6F007D0500EE82ED6
:10329800FED70001F507D8A0F6070001F551000197
:1032A800F611D8B41200F2D7000160510001611183
:1032B8000001621100016311D8B409D0000E0001A9
:1032C800601B000E611B000E621B800E631B60C03A
:1032D80060F061C061F062C062F063C063F0120028
:1032E8000001605100016203F3CF64F0F4CF65F090
:1032F8000001605100016303F350000165270001DC
:10330800615100016203F3500001652764C060F059
:1033180065C061F0120000016D6F000E0001686F5A
:10332800000E0001696F000E00016A6F000E1EECAE
:1033380019F0010E0001686F6DC069F06CC06AF089
:10334800010E1EEC19F01200000E0001686F000E4D
:103358000001696F000E00016A6F000E1EEC19F083
:10336800000E0001686F000E0001696F010E000178
:103378006A6F000E1EEC19F012000001686F000E53
:103388000001696F09D0030E0001676FE80E666FD0
:103398003BEC19F00001692B000168510001695DDF
:1033A800D8B01200F0D70BD071C0F6FF72C0F7FF8B
:1033B8000800F550B7EC17F00001714B722B71C083
:1033C800F6FF72C0F7FF0800F5500009D8B41200E4
:1033D800EBD70001626F000E0001616F3A0E000129
:1033E800626107D02F0E0001626503D0010E000153
:1033F800616F61C060F0000160311200ACA2FED7BD
:1034080061C0D9FF62C0DAFFDF5048EC1AF061C032
:10341800D9FF62C0DAFF0001614B622BDF50D8B4DC
:103428001200ECD70AD071C0D9FF72C0DAFFDF50A2
:10343800B7EC17F00001714B722B71C0D9FF72C045
:10344800DAFFDF50D8B41200EED78B82000E0001ED
:10345800676F010E666F3BEC19F08B92000E00014E
:10346800676F010E666F3BEC19F0120081A602D05F
:1034780044B41200449481A6120044B202D044829B
:1034880001D04492448412000001606FACAC03D0B8
:10349800AC9039B2AC8060C0ADFF12000001606F23
:1034A800000160B102D08B9801D08B881200000116
:0A34B800606F60C045F012001000C4
:103EEA00000000803FCDCCCC3D0AD7233C6F128323
:103EFA003A17B7D138ACC52737BD37863595BFD6FF
:103F0A003377CC2B325F708930FFE6DB2E08E53C35
:103F1A001E6042A20D0000803F000020410000C840
:103F2A004200007A4400401C460050C347002474F3
:103F3A00498096184B20BCBE4C286B6E4EF9021570
:103F4A0050EC78AD60CAF24971010000000A000025
:103F5A000064000000E803000010270000A08601AA
:103F6A000040420F008096980000E1F50500CA9AC9
:103F7A003B5475726E207468652073776974636840
:103F8A00204F4E2120003D3D3E2056454849434C96
:103F9A004520204F4646203C3D3D003D3D3D2056B4
:103FAA00454849434C452044415441203D3D3D004C
:103FBA003D3D3D3D3D3D3D3D3D3D3D3D3D3D3D3D27
:103FCA003D3D3D3D00446972656374696F6E3A20F8
:103FDA000053706565643A20252E3366005761697F
:103FEA00742E2E2E00424B5744004B6D2F6800460C
:063FFA00574400500000D6
:020000040020DA
:08000000FFFFFFFFFFFFFFFF00
:020000040030CA
:0E000000FF021F1EFF8281FF0FC00FE00F40A6
:00000001FF
