:04000000F4EF1BF00E
:10376E00AA0000000000AA10CFF7333F0000084265
:10377E00016EACAC03D0AC9048B2AC8001C0ADFFD2
:10378E00120001500302F3CF05F0F4CF06F0015002
:10379E000402F350062602500302F350062605C01B
:1037AE0001F006C002F012003BC001F0026A07C031
:1037BE0003F008C004F0C8EC1BF001C044F002C0D6
:1037CE0045F006D0500EE82EFED74406D8A045068A
:1037DE0044504510D8B41200F5D7516A00EE44F0AB
:1037EE000D0EEE6AE806FDE16E0EF66E370EF76E02
:1037FE00000EF86E00EE34F010EE10F00900F5CF6A
:10380E00EEFFE550E150FAE1000127EF1DF0000E4A
:10381E004A6E010E4A6401D01200C282C2B2FED7B5
:10382E004A50010D4F0EF324D96E000EF420DA6EBD
:10383E00C450800FDF6EC2A402D0010E01D0000E64
:10384E00FF0A016E01460146C2500118FB0B01181A
:10385E00C26E4A2ADED747504C6E46C04BF0000E61
:10386E0051B0010E356E4CC036F04BC037F04DC026
:10387E0038F049C039F0000E4A6E060E4A6401D087
:10388E0012004A50010D340EF324D96E000EF420AE
:10389E00DA6EDF50BFEC1BF0ACA2FED74A2AEDD792
:1038AE00036E000EAC6E000EAB6E03B0AC8803A2BE
:1038BE0002D0AC8CAB8C03B4AC8E03A602D0AB881A
:1038CE0001D0AB8A03B8AC849E9803BAAB8603AC26
:1038DE0002D09D8A01D09D9A9E9A03AE02D09D88F9
:1038EE0001D09D9801C0AFFF0250B06EAC8AAB8E76
:1038FE00949C948EACA81200ACBE1200948C120054
:10390E00000E896E0F0E926E000E8A6E9368000E78
:10391E008B6E9468000E8C6E000E956E000E8D6E82
:10392E0096684F0EAB16AC9ACF0E9D16000E026E19
:10393E00670E016E7C0E57EC1CF0AB8E0D0EC16E39
:10394E00C298C296C294C08AC088C096C084C092E3
:10395E00C080C09EC280000E086E020E076EDBECA9
:10396E001BF012002A342B34316E3150D8A409D0FA
:10397E00000E286E000E296E000E2A6E000E2B6EA3
:10398E00120028C02CF029C02DF02AC02EF02BC01A
:10399E002FF0200E05D0D8902F322E322D322C3211
:1039AE00E82EF9D72C50306E2A8EFF0E2816FF0EF9
:1039BE002916FF0E2A16000E2B16960E315E31AE0C
:1039CE0016D03150800A970FD8B009D0000E286E4D
:1039DE00000E296E000E2A6E000E2B6E1200D8906D
:1039EE002B322A3229322832313EF9D715D01F0E0A
:1039FE0031640FD0000E286E000E296E000E2A6E56
:103A0E00000E2B6E1200D890283629362A362B3609
:103A1E0031063150D8A4F7D73050D8B408D02B1E69
:103A2E002A1E291E286C000E29222A222B2228C08B
:103A3E0028F029C029F02AC02AF02BC02BF0120042
:103A4E0087EC1CF00EEC1CF080A403D0000E4E6E22
:103A5E0009D080B604D0010E4E6E518003D0020EF6
:103A6E004E6E51903CC013F03DC014F03EC015F0A8
:103A7E003FC016F04FC032F0336A32BE3306800EAE
:103A8E003226000E332232C001F033C002F0000E97
:103A9E0002BEFF0E036E046E010EB0EC1DF001C0EF
:103AAE000FF002C010F003C011F004C012F058EC79
:103ABE001EF00FC028F010C029F011C02AF012C05D
:103ACE002BF0B9EC1CF028504D6E5050800A7F0F31
:103ADE00D8A02DD040C013F041C014F042C015F054
:103AEE0043C016F05050016E000E01BEFF0E026E66
:103AFE00036E046E010EB0EC1DF001C00FF002C09B
:103B0E0010F003C011F004C012F058EC1EF00FC0FC
:103B1E0028F010C029F011C02AF012C02BF0B9EC19
:103B2E001CF028C046F029C047F0000E08D0000E49
:103B3E00476E000E466E5050020DF3280008496E77
:103B4E0032EC1CF0000E086E0A0E076EDBEC1BF05A
:103B5E0079D7096E0950D8A404AE1AD001C005F069
:103B6E0002C006F003C007F004C008F0051E061ED2
:103B7E00071E081E052A000E06220722082205C06F
:103B8E000BF006C00CF007C00DF008C00EF008D008
:103B9E0001C00BF002C00CF003C00DF004C00EF01B
:103BAE000150021003100410D8A409D0000E016EAB
:103BBE00000E026E000E036E000E046E1200960EC4
:103BCE000A6E06D00A2AD8900E320D320C320B3203
:103BDE00000E0B14056E000E0C14066E000E0D1466
:103BEE00076EFE0E0E14086E055006100710081014
:103BFE00D8B40DD0E7D70A2A010E0B26000E0C22E0
:103C0E000D220E22D8900E320D320C320B32000ED7
:103C1E000B14056E000E0C14066E000E0D14076EBE
:103C2E00FF0E0E14086E0550061007100810D8B4BB
:103C3E0007D0E1D70A06D8900B360C360D360E3665
:103C4E000DBE03D0020E0A60F5D70AB008D0FF0EE3
:103C5E000B16FF0E0C167F0E0D16FF0E0E16D890BD
:103C6E000A320AC005F0066A076A086A05C008F03B
:103C7E00076A066A056A05500B1206500C120750A9
:103C8E000D1208500E120950D8A404AE01D00E8E9B
:103C9E000BC001F00CC002F00DC003F00EC004F01A
:103CAE0012001250800B1B6E12501224216E11BE88
:103CBE0021802150D8B40DD02128D8A408D0000ED0
:103CCE000F6E000E106E000E116E000E126E118E23
:103CDE0008D0000E0F6E000E106E000E116E000E4C
:103CEE00126E1650800B1B1A16501624206E15BE1F
:103CFE0020802050D8B40DD02028D8A408D0000E93
:103D0E00136E000E146E000E156E000E166E158ECE
:103D1E0008D0000E136E000E146E000E156E000EFF
:103D2E00166E2050D8B403D02150D8A409D0000E5E
:103D3E000F6E000E106E000E116E000E126E12003F
:103D4E0015500F02F3CF26F0F4CF27F026501C6E3D
:103D5E001D6A1E6A1F6A2750226E236A246A256A0C
:103D6E0014501002F3CF26F0F4CF27F026501C2665
:103D7E00000E1D221E221F2227502226000E232255
:103D8E002422252213501102F3CF26F0F4CF27F070
:103D9E0026501C26000E1D221E221F2227502226D0
:103DAE00000E2322242225221EC01FF01DC01EF04D
:103DBE001CC01DF01C6A13501002F3CF26F0F4CF76
:103DCE0027F026501C2627501D22000E1E22000E04
:103DDE001F2214500F02F3CF26F0F4CF27F02650F7
:103DEE001C2627501D22000E1E22000E1F221EC052
:103DFE001FF01DC01EF01CC01DF01C6A13500F02D8
:103E0E00F3CF26F0F4CF27F026501C2627501D2284
:103E1E00000E1E22000E1F2215501002F3CF26F0A8
:103E2E00F4CF27F02650222627502322000E2422DC
:103E3E00000E252214501102F3CF26F0F4CF27F0F6
:103E4E002650222627502322000E2422000E252241
:103E5E0015501102F3CF26F0F4CF27F02650176E2F
:103E6E002750186E196A1A6A19C01AF018C019F07C
:103E7E0017C018F0176A175022261850232219500F
:103E8E0024221A5025221CC017F01DC018F01EC087
:103E9E0019F01FC01AF0190E05D0D8901A32193227
:103EAE0018321732E82EF9D717502226185023222F
:103EBE00195024221A5025221EC01FF01DC01EF0BC
:103ECE001CC01DF01C6A205021C017F0186A17265E
:103EDE00000E1822820E1724266EFF0E1820276E53
:103EEE000FD0D89022362336243625361FBE228098
:103EFE00D8901C361D361E361F362606D8A027062D
:103F0E0024AEEFD7000E206E1FAE16D0FF0E1C147F
:103F1E00176EFF0E1D14186EFF0E1E14196E7F0EF7
:103F2E001F141A6E1750181019101A10D8A402D098
:103F3E0022A002D0010E206E2050D8B41FD0010E48
:103F4E002226000E23222422252225A017D022C0AD
:103F5E0017F023C018F024C019F025C01AF01A3437
:103F6E001A3219321832173217C022F018C023F045
:103F7E0019C024F01AC025F0264A272A27BE0DD0D4
:103F8E00275003E12628D8A008D0000E226E000E7E
:103F9E00236E800E246E7F0E20D027BE05D02750B4
:103FAE000EE12604D8B00BD0000E226E000E236E4A
:103FBE00000E246E000E256E000E1B6E0FD026C056
:103FCE0021F0FF0E2216FF0E23167F0E2416000E72
:103FDE00251621B0248ED8902130256E1B50251227
:103FEE0022C00FF023C010F024C011F025C012F033
:023FFE001200AF
:020000040020DA
:08000000FFFFFFFFFFFFFFFF00
:020000040030CA
:0E000000FF021F1EFF8285FF0FC00FE00F40A2
:00000001FF
