:04000000CEEF1BF034
:1037630010016EACAC03D0AC903FB2AC8001C0ADE5
:10377300FF120001500302F3CF05F0F4CF06F0016E
:10378300500402F350062602500302F350062605A6
:10379300C001F006C002F01200506A00EE34F01CC3
:1037A3000EEE6AE806FDE1630EF66E370EF76E0065
:1037B3000EF86E0900F5CF51F0000113EF1DF05123
:1037C300C001F0026A07C003F008C004F0BBEC1BA1
:1037D300F001C03BF002C03CF006D0500EE82EFED4
:1037E300D73B06D8A03C063B503C10D8B41200F59A
:1037F300D7000E416E010E416401D01200C282C295
:10380300B2FED74150010D4E0EF324D96E000EF4D3
:1038130020DA6EC450800FDF6EC2A402D0010E0105
:10382300D0000EFF0A016E01460146C2500118FB8B
:103833000B0118C26E412ADED73E50436E3DC04293
:10384300F0000E50B0010E356E43C036F042C03763
:10385300F044C038F040C039F0000E416E060E410E
:103863006401D012004150010D340EF324D96E00CF
:103873000EF420DA6EDF50B2EC1BF0ACA2FED7419F
:103883002AEDD7036E000EAC6E000EAB6E03B0AC28
:103893008803A202D0AC8CAB8C03B4AC8E03A6021B
:1038A300D0AB8801D0AB8A03B8AC849E9803BAAB83
:1038B3008603AC02D09D8A01D09D9A9E9A03AE02E4
:1038C300D09D8801D09D9801C0AFFF0250B06EAC6F
:1038D3008AAB8E949C948EACA81200ACBE1200945A
:1038E3008C1200000E896E0F0E926E000E8A6E937C
:1038F30068000E8B6E9468000E8C6E000E956E0041
:103903000E8D6E96684F0EAB16AC9ACF0E9D1600B9
:103913000E026E670E016E7C0E43EC1CF0AB8E0D37
:103923000EC16EC298C296C294C08AC088C096C0A7
:1039330084C092C080C09EC280000E086E020E0733
:103943006EE1EC1BF012002A342B34316E3150D867
:10395300A409D0000E286E000E296E000E2A6E00F8
:103963000E2B6E120028C02CF029C02DF02AC02E79
:10397300F02BC02FF0200E05D0D8902F322E322DF1
:10398300322C32E82EF9D72C50306E2A8EFF0E28B7
:1039930016FF0E2916FF0E2A16000E2B16960E3151
:1039A3005E31AE16D03150800A970FD8B009D000DF
:1039B3000E286E000E296E000E2A6E000E2B6E125C
:1039C30000D8902B322A3229322832313EF9D715CA
:1039D300D01F0E31640FD0000E286E000E296E002A
:1039E3000E2A6E000E2B6E1200D890283629362A26
:1039F300362B3631063150D8A4F7D73050D8B40817
:103A0300D02B1E2A1E291E286C000E29222A222BA7
:103A13002228C028F029C029F02AC02AF02BC02B65
:103A2300F0120073EC1CF0AA0E346EAA0E3A6ECF9D
:103A33000E466EF70E476E330E486E3F0E496E000C
:103A43000E4A6E000E4B6E080E4C6E420E4D6EFA11
:103A5300EC1BF080A403D0000E456E09D080B604A1
:103A6300D0010E456E508003D0020E456E50904635
:103A7300C013F047C014F048C015F049C016F04E0B
:103A8300C032F0336A32BE3306800E3226000E3364
:103A93002232C001F033C002F0000E02BEFF0E035B
:103AA3006E046E010EB0EC1DF001C00FF002C010E9
:103AB300F003C011F004C012F058EC1EF00FC02840
:103AC300F010C029F011C02AF012C02BF0A5EC1C95
:103AD300F02850446E4F50800A7F0FD8A02DD04A53
:103AE300C013F04BC014F04CC015F04DC016F04F8E
:103AF30050016E000E01BEFF0E026E036E046E01D6
:103B03000EB0EC1DF001C00FF002C010F003C011A5
:103B1300F004C012F058EC1EF00FC028F010C029BA
:103B2300F011C02AF012C02BF0A5EC1CF028C03D08
:103B3300F029C03EF0000E08D0000E3E6E000E3D90
:103B43006E4F50020DF3280008406E1EEC1CF0006F
:103B53000E086E0A0E076EE1EC1BF079D7096E09A9
:103B630050D8A404AE1AD001C005F002C006F00379
:103B7300C007F004C008F0051E061E071E081E0538
:103B83002A000E06220722082205C00BF006C00CED
:103B9300F007C00DF008C00EF008D001C00BF00212
:103BA300C00CF003C00DF004C00EF001500210036E
:103BB300100410D8A409D0000E016E000E026E008E
:103BC3000E036E000E046E1200960E0A6E06D00AE5
:103BD3002AD8900E320D320C320B32000E0B140524
:103BE3006E000E0C14066E000E0D14076EFE0E0E04
:103BF30014086E0550061007100810D8B40DD0E74E
:103C0300D70A2A010E0B26000E0C220D220E22D8F3
:103C1300900E320D320C320B32000E0B14056E0077
:103C23000E0C14066E000E0D14076EFF0E0E140814
:103C33006E0550061007100810D8B407D0E1D70A54
:103C430006D8900B360C360D360E360DBE03D00259
:103C53000E0A60F5D70AB008D0FF0E0B16FF0E0C44
:103C6300167F0E0D16FF0E0E16D8900A320AC005E7
:103C7300F0066A076A086A05C008F0076A066A055B
:103C83006A05500B1206500C1207500D1208500E05
:103C9300120950D8A404AE01D00E8E0BC001F00C53
:103CA300C002F00DC003F00EC004F01200125080E9
:103CB3000B1B6E12501224216E11BE21802150D88D
:103CC300B40DD02128D8A408D0000E0F6E000E101A
:103CD3006E000E116E000E126E118E08D0000E0FC4
:103CE3006E000E106E000E116E000E126E165080D6
:103CF3000B1B1A16501624206E15BE20802050D898
:103D0300B40DD02028D8A408D0000E136E000E14D2
:103D13006E000E156E000E166E158E08D0000E1373
:103D23006E000E146E000E156E000E166E2050D827
:103D3300B403D02150D8A409D0000E0F6E000E108A
:103D43006E000E116E000E126E120015500F02F36C
:103D5300CF26F0F4CF27F026501C6E1D6A1E6A1F73
:103D63006A2750226E236A246A256A14501002F3CC
:103D7300CF26F0F4CF27F026501C26000E1D221E5E
:103D8300221F2227502226000E232224222522131B
:103D9300501102F3CF26F0F4CF27F026501C260053
:103DA3000E1D221E221F2227502226000E2322240C
:103DB3002225221EC01FF01DC01EF01CC01DF01CBA
:103DC3006A13501002F3CF26F0F4CF27F026501CCD
:103DD3002627501D22000E1E22000E1F2214500FF4
:103DE30002F3CF26F0F4CF27F026501C2627501DD0
:103DF30022000E1E22000E1F221EC01FF01DC01E19
:103E0300F01CC01DF01C6A13500F02F3CF26F0F410
:103E1300CF27F026501C2627501D22000E1E2200FD
:103E23000E1F2215501002F3CF26F0F4CF27F026F1
:103E330050222627502322000E2422000E2522146E
:103E4300501102F3CF26F0F4CF27F0265022262775
:103E5300502322000E2422000E252215501102F3B6
:103E6300CF26F0F4CF27F02650176E2750186E197F
:103E73006A1A6A19C01AF018C019F017C018F01797
:103E83006A1750222618502322195024221A50252B
:103E9300221CC017F01DC018F01EC019F01FC01A55
:103EA300F0190E05D0D8901A32193218321732E8A9
:103EB3002EF9D71750222618502322195024221ADC
:103EC3005025221EC01FF01DC01EF01CC01DF01C7B
:103ED3006A205021C017F0186A1726000E18228294
:103EE3000E1724266EFF0E1820276E0FD0D89022AF
:103EF300362336243625361FBE2280D8901C361D25
:103F0300361E361F362606D8A0270624AEEFD70066
:103F13000E206E1FAE16D0FF0E1C14176EFF0E1D63
:103F230014186EFF0E1E14196E7F0E1F141A6E17CF
:103F330050181019101A10D8A402D022A002D001D0
:103F43000E206E2050D8B41FD0010E2226000E235F
:103F5300222422252225A017D022C017F023C0181F
:103F6300F024C019F025C01AF01A341A3219321885
:103F730032173217C022F018C023F019C024F01AE8
:103F8300C025F0264A272A27BE0DD0275003E12655
:103F930028D8A008D0000E226E000E236E800E24B7
:103FA3006E7F0E20D027BE05D027500EE12604D801
:103FB300B00BD0000E226E000E236E000E246E0096
:103FC3000E256E000E1B6E0FD026C021F0FF0E22B1
:103FD30016FF0E23167F0E2416000E251621B0247D
:103FE3008ED8902130256E1B50251222C00FF0234E
:0E3FF300C010F024C011F025C012F01200FF23
:020000040020DA
:08000000FFFFFFFFFFFFFFFF00
:020000040030CA
:0E000000FF021F1EFF8285FF0FC00FE00F40A2
:00000001FF
